:100000000C94AF000C94D7000C94D7000C94370AD2
:100010000C94370A0C94370A0C94D7000C94D70030
:100020000C94D7000C94D1070C94D7000C9476094B
:100030000C94D7000C94D7000C94D7000C94D700E4
:100040000C9487070C94D7000C947A060C945406F1
:100050000C94D7000C94D7000C94D7000C94D700C4
:100060000C94C70A0C94D7004C11621185119B1196
:10007000BC11D511F8110B122E1241126512076333
:100080004236B79BD8A71A39685618AEBAAB558C0A
:100090001D3CB7CC5763BD6DEDFD753EF617723153
:1000A000BF000000803F08000000BE922449123EBD
:1000B000ABAAAA2ABECDCCCC4C3E00000080BEAB81
:1000C000AAAAAA3E00000000BF000000803F000076
:1000D000000000084178D3BB4387D1133D190E3C83
:1000E000C3BD4282AD2B3E68EC8276BED98FE1A9BA
:1000F0003E4C80EFFFBE01C4FF7F3F0000000000C8
:1001000000000000240027002A0000000008000270
:1001100001000003040700000000000000000000D0
:100120000000250028002B0000000000230026000E
:10013000290004040404040404040202020202026A
:10014000030303030303010204081020408001029B
:1001500004081020010204081020D413320C1124CA
:100160001FBECFEFD8E0DEBFCDBF24E0A4EBB1E0EF
:1001700001C01D92AB33B207E1F711E0A0E0B1E09E
:10018000E8E4F2E302C005900D92A43BB107D9F771
:1001900010E0CEEAD0E004C02197FE010E94C8140E
:1001A000CD3AD107C9F70E943C0C0C9417190C9456
:1001B0000000FC01918D828D981761F0828DDF0126
:1001C000A80FB11D5D968C91928D9F5F9F73928F4A
:1001D00090E008958FEF9FEF0895FC01918D828D3F
:1001E000981731F0828DE80FF11D858D90E008950C
:1001F0008FEF9FEF0895FC01918D228D892F90E064
:10020000805C9F4F821B91098F739927089581E627
:1002100093E00E94FB0021E0892B09F420E0822F6B
:100220000895FC01848DDF01A80FB11DA35ABF4FB3
:100230002C91848D90E001968F739927848FA689E5
:10024000B7892C93A089B1898C9180648C93938D0C
:10025000848D981306C00288F389E02D80818F7DFC
:1002600080830895EF92FF920F931F93CF93DF93B4
:10027000EC0181E0888F9B8D8C8D981305C0E889F7
:10028000F989808185FD24C0F62E0B8D10E00F5F6B
:100290001F4F0F731127E02E8C8DE8120CC00FB684
:1002A00007FCFACFE889F989808185FFF5CFCE0177
:1002B0000E941101F1CF8B8DFE01E80FF11DE35A71
:1002C000FF4FF0820B8FEA89FB898081806207C033
:1002D000EE89FF896083E889F98980818064808361
:1002E00081E090E0DF91CF911F910F91FF90EF900F
:1002F0000895CF93DF93EC01888D8823C9F0EA89B4
:10030000FB89808185FD05C0A889B9898C9186FD0E
:100310000FC00FB607FCF5CF808185FFF2CFA8890B
:10032000B9898C9185FFEDCFCE010E941101E7CFF5
:10033000DF91CF91089580E090E0892B29F00E9411
:10034000070181110C9400000895833081F028F496
:10035000813099F08230A1F008958730A9F088307B
:10036000B9F08430D1F4809180008F7D03C08091FA
:1003700080008F7780938000089584B58F7702C0C6
:1003800084B58F7D84BD08958091B0008F7703C0C0
:100390008091B0008F7D8093B00008953FB7F894AE
:1003A00080919A0290919B02A0919C02B0919D0233
:1003B00026B5A89B05C02F3F19F00196A11DB11DC0
:1003C0003FBFBA2FA92F982F8827820F911DA11DFB
:1003D000B11DBC01CD0142E0660F771F881F991F38
:1003E0004A95D1F708958091B8029091B902892B6E
:1003F00029F0E091B002F091B10209959AB1809193
:10040000010189238AB99BB18091010189238BB9AC
:1004100094B180910001892384B995B18091000144
:10042000892385B9809193029091940240910B03A6
:10043000892B09F0E0C08091BC029091BD0290939D
:100440009402809393022091BA023091BB02E09112
:100450009202F0E0EE0FFF1FE154FD4F8081918189
:1004600082239323892B89F02091920230E080919E
:100470000201082E000C990B0197841B910947FD7E
:100480009395821793070CF0B8C280910B038823D1
:1004900009F49DC080E590E09093910280939002D2
:1004A0002091920230E080910201082E000C990BFD
:1004B00001972817390709F08AC0E09192022BB101
:1004C000F0E0EF50FD4F8081082E000C990B822B3D
:1004D0008BB9E09192022AB1F0E0E250FD4F8081A9
:1004E000082E000C990B822B8AB9E091920225B15B
:1004F000F0E0E952FD4F8081082E000C990B822B11
:1005000085B9E091920224B1F0E0EC51FD4F808179
:10051000082E000C990B822B84B98091BE0288238F
:1005200011F023B101C029B180910E0390910F0306
:10053000822380938F028091340390913503892B1D
:1005400029F180918F02811105C010928E021092C4
:100550008D0239C010928C0210928B0280918D0214
:1005600090918E02019690938E0280938D028091DD
:100570008D0290918E02499750F11092350310929E
:10058000340310928E0210928D0221C080918F024E
:1005900010928E0210928D02811115C080918B02F3
:1005A00090918C02019690938C0280938B028091A3
:1005B0008B0290918C02499750F081E090E09093EB
:1005C00035038093340310928C0210928B02809139
:1005D00092028F5F809392022091920230E080918C
:1005E0000201082E000C990B821793070CF0C1C072
:1005F00010929202BEC0442309F4BBC080E590E093
:10060000909391028093900220910C0330910D03FE
:1006100080910201082E000C990B019728173907C9
:1006200009F08EC0E0910C03F0910D032BB1EF5057
:10063000FD4F8081082E000C990B822B8BB9E09125
:100640000C03F0910D032AB1E250FD4F8081082E7A
:10065000000C990B822B8AB9E0910C03F0910D03E9
:1006600025B1E952FD4F8081082E000C990B822B99
:1006700085B9E0910C03F0910D0324B1EC51FD4FCD
:100680008081082E000C990B822B84B98091BE02C8
:10069000882311F023B101C029B180910E039091FC
:1006A0000F03822380938F0280913403909135034E
:1006B000892B29F180918F02811105C010928E0241
:1006C00010928D0239C010928C0210928B02809190
:1006D0008D0290918E02019690938E0280938D02EE
:1006E00080918D0290918E02499750F110923503BE
:1006F0001092340310928E0210928D0221C08091CC
:100700008F0210928E0210928D02811115C080917D
:100710008B0290918C02019690938C0280938B02B5
:1007200080918B0290918C02499750F081E090E08B
:10073000909335038093340310928C0210928B02B5
:1007400080910C0390910D03019690930D0380937B
:100750000C0320910C0330910D0380910201082EAF
:10076000000C990B8217930720F410920D0310923E
:100770000C038091930290919402019790939402BC
:10078000809393028091890290918A02019709F5E2
:1007900029B18091870290918802822380938602FA
:1007A000909185028917A9F080938502809181023A
:1007B00090918202A0918302B09184020196A11DC2
:1007C000B11D8093810290938202A0938302B09323
:1007D00084028091890290918A02029709F523B1DF
:1007E0008091870290918802822380938602909163
:1007F00085028917A9F080938502809181029091EA
:100800008202A0918302B09184020196A11DB11DC4
:100810008093810290938202A0938302B09384021A
:1008200080917F0290918002019709F529B1809112
:100830007D0290917E02822380937C0290917B02C4
:100840008917A9F080937B028091770290917802BA
:10085000A0917902B0917A020196A11DB11D8093F9
:10086000770290937802A0937902B0937A028091F4
:100870007F0290918002029709F523B180917D0259
:1008800090917E02822380937C0290917B02891753
:10089000A9F080937B028091770290917802A091D9
:1008A0007902B0917A020196A11DB11D8093770261
:1008B00090937802A0937902B0937A0280917502A6
:1008C00090917602019709F529B180917302909178
:1008D0007402822380937202909171028917A9F0A9
:1008E0008093710280916D0290916E02A0916F02CF
:1008F000B09170020196A11DB11D80936D0290937D
:100900006E02A0936F02B093700280917502909175
:100910007602029709F523B18091730290917402D7
:10092000822380937202909171028917A9F08093BB
:10093000710280916D0290916E02A0916F02B09150
:1009400070020196A11DB11D80936D0290936E02FD
:10095000A0936F02B093700280916B0290916C0231
:10096000019709F529B18091690290916A02822369
:1009700080936802909167028917A9F080936702BB
:100980008091630290916402A0916502B091660229
:100990000196A11DB11D8093630290936402A09300
:1009A0006502B093660280916B0290916C0202978F
:1009B00009F054C023B18091690290916A028223A8
:1009C0008093680290916702891709F447C0809369
:1009D00067028091630290916402A0916502B091D8
:1009E00066020196A11DB11D80936302909364027B
:1009F000A0936502B09366020895E09192022BB134
:100A0000F0E0EF50FD4F8081082E000C990B822BF7
:100A10008BB9E09192022AB1F0E0E250FD4F808163
:100A2000082E000C990B822B8AB9E091920225B115
:100A3000F0E0E952FD4F8081082E000C990B822BCB
:100A400085B9E091920224B1F0E0EC51FD4F808134
:100A5000082E000C990B822B84B917CD0895209194
:100A6000A7023091A8022817390771F49091A502C6
:100A70008091A602981741F0E091A502F0E0EF5DA9
:100A8000FD4F808190E008958FEF9FEF08950895C6
:100A90001F93CF93DF93DC015C962D913C915D9782
:100AA0002115310539F481E090E013969C938E93E3
:100AB00012973DC05196ED91FC91529750969C91A2
:100AC0005097892F80951FB75E964C915E9741FB9A
:100AD000772770F941FD6095F8944081772311F0F4
:100AE000492B01C048234083E9012197F1F748E0F1
:100AF000508160FF02C0592B01C058235083E90187
:100B00002197F1F76695415099F7772321F090816D
:100B10008923808303C08081982B90831FBF5C96BC
:100B20008D919C915D970197F1F721E030E0C9012B
:100B3000DF91CF911F9108952091A7023091A802D3
:100B40002817390771F48091A6022091A50290E040
:100B5000805C9F4F821B910960E470E00E94B41496
:100B6000089580E090E008952091A7023091A802B6
:100B700028173907B9F49091A5028091A602981719
:100B800089F0E091A502F0E0EF5DFD4F80812091BA
:100B9000A50230E02F5F3F4F2F7333272093A5022C
:100BA00090E008958FEF9FEF089585ED8093BC004E
:100BB0008091BC0084FDFCCF1092A002089540916A
:100BC000D801262F30E0240F311D21323105DCF40D
:100BD0002091A0022430C9F4FC0180E090E0861747
:100BE00058F43091D8012191DC01AA54BE4FA30FD3
:100BF000B11D2C930196F3CF8091D801680F6093BB
:100C0000D80180E0089581E0089582E00895089574
:100C100081E090E03091A4022091A302321710F4F9
:100C200080E090E091958195910908958091A402CA
:100C30009091A302891730F48F5F8093A40280E023
:100C400090E008958FEF9FEF08958091A30290E0C8
:100C50002091A402821B91090895CF93DF9300D0C5
:100C6000CDB7DEB7CB01642F49835A830E94DF05DD
:100C70004981842F5A81952F0F900F90DF91CF914A
:100C80000895CF93DF931F92CDB7DEB7698361E0FC
:100C9000CE0101960E94DF0581E090E00F90DF9188
:100CA000CF9108950E94AF181F920F920FB60F9226
:100CB00011242F933F934F935F936F937F938F9361
:100CC0009F93AF93BF93EF93FF9381E693E00E94CE
:100CD0001101FF91EF91BF91AF919F918F917F9102
:100CE0006F915F914F913F912F910F900FBE0F9099
:100CF0001F9018951F920F920FB60F9211242F93E9
:100D00008F939F93EF93FF93E0917103F0917203A0
:100D10008081E0917703F091780382FD12C0908189
:100D200080917A038F5F8F7320917B03821751F03C
:100D3000E0917A03F0E0EF59FC4F958F80937A03AE
:100D400001C08081FF91EF919F918F912F910F9022
:100D50000FBE0F901F901895CF93DF93282F30E090
:100D6000F901E65FFE4F8491F901EA5BFE4FD491F1
:100D7000F901EE5CFE4FC491CC2391F081110E94E9
:100D8000A501EC2FF0E0EE0FFF1FE85DFE4FA591EF
:100D9000B491EC91ED2381E090E021F480E002C079
:100DA00080E090E0DF91CF9108951F93CF93DF9380
:100DB000282F30E0F901E65FFE4F8491F901EA5BEC
:100DC000FE4FD491F901EE5CFE4FC491CC23C9F0E3
:100DD000162F81110E94A501EC2FF0E0EE0FFF1FEE
:100DE000E25EFE4FA591B4918FB7F894111105C042
:100DF0009C91ED2FE095E92302C0EC91ED2BEC9353
:100E00008FBFDF91CF911F910895CF93DF9390E033
:100E1000FC01EA5BFE4F2491FC01EE5CFE4F8491E5
:100E2000882361F190E0880F991FFC01E050FF4F8B
:100E3000C591D491FC01E25EFE4FA591B491611180
:100E400009C09FB7F8948881209582238883EC910C
:100E50002E230BC0623061F49FB7F8943881822F43
:100E6000809583238883EC912E2B2C939FBF06C003
:100E70008FB7F894E8812E2B28838FBFDF91CF9115
:100E800008958F929F92AF92BF92CF92DF92EF928E
:100E9000FF926B017C010E94CE014B015C01C114E9
:100EA000D104E104F104F1F00E94CE01DC01CB0198
:100EB00088199909AA09BB09883E9340A105B10583
:100EC00070F321E0C21AD108E108F10888EE880E1B
:100ED00083E0981EA11CB11CC114D104E104F104EB
:100EE00019F7DDCFFF90EF90DF90CF90BF90AF90DC
:100EF0009F908F9008952FB7F8946091960270910B
:100F0000970280919802909199022FBF08951F92A5
:100F10000F920FB60F9211242F933F938F939F93AD
:100F2000AF93BF938091960290919702A0919802FF
:100F3000B09199023091950223E0230F2D3720F4D0
:100F40000196A11DB11D05C026E8230F0296A11D23
:100F5000B11D209395028093960290939702A093DF
:100F60009802B093990280919A0290919B02A0916D
:100F70009C02B0919D020196A11DB11D80939A0221
:100F800090939B02A0939C02B0939D02BF91AF915E
:100F90009F918F913F912F910F900FBE0F901F90B7
:100FA00018951F920F920FB60F9211242F933F9313
:100FB0004F935F936F937F938F939F93AF93BF9361
:100FC000EF93FF938091AE029091AF028093B200B5
:100FD0008091AA029091AB02A091AC02B091AD02B7
:100FE0000196A11DB11D8093AA029093AB02A0931C
:100FF000AC02B093AD024091AA025091AB02609155
:10100000AC027091AD028091B4029091B502A091B2
:10101000B602B091B702481759076A077B07B0F0CC
:101020008091A902811112C081E08093A9021092DF
:10103000AA021092AB021092AC021092AD02E091A3
:10104000B202F091B30209951092A902FF91EF91BB
:10105000BF91AF919F918F917F916F915F914F91D0
:101060003F912F910F900FBE0F901F901895CF9327
:10107000DF93CDB7DEB7E0970FB6F894DEBF0FBEB3
:10108000CDBF98E1E7E0F1E0DE01599601900D92C5
:101090009A95E1F798E1EFE1F1E0DE011196019018
:1010A0000D929A95E1F781508C30E0F490E0209118
:1010B000BA023091BB02880F991FE1E0F0E0EC0F1B
:1010C000FD1FE80FF91F662329F0808D918D822B7B
:1010D000932B04C080819181822393239093BB0240
:1010E0008093BA02E0960FB6F894DEBF0FBECDBF74
:1010F000DF91CF910895CF92DF92EF92FF92CF933D
:10110000DF93EC01603282E078070CF03DC077FDA0
:1011100006C0653B71052CF064EB70E002C060E036
:1011200070E0898128E830E06901C81AD10887FD9C
:10113000D394CC0CDD1CCC0CDD1C0D2C000CEE086B
:10114000FF088A8128E532E0281B310987FD3395A5
:10115000220F331F220F331FC901330FAA0BBB0B02
:101160009C01AD012C193D094E095F09DB010E946C
:10117000DE1824EB30E040E050E00E94B418C20ECC
:10118000D31EE41EF51EB60188818C3080F599814E
:1011900048E850E0491B510997FD5395440F551FEE
:1011A000440F551F6417750784F09A8128E532E0D3
:1011B000291B310997FD3395220F331F220F331F4F
:1011C000AB01261737070CF4A90142505109440F0F
:1011D000551F2FB7F89490E0FC01EE0FFF1F8E0F04
:1011E0009F1FFC01E05FFC4F528341832FBFDF91C3
:1011F000CF91FF90EF90DF90CF9008951F93CF9302
:10120000DF93EC01162F88818C3008F04EC061E02E
:10121000812F0E9405078881E82FF0E09F01220FAF
:10122000331FE20FF31FE05FFC4F1F739081907C30
:10123000192B108319821A826CE00E94A8149CE07A
:10124000899FB001112440E050E09A01260F371F1A
:10125000F901EE0FFF1F2E0F3F1FF901E05FFC4F5A
:10126000908196FD16C04F5F5F4F4C30510569F776
:1012700081110FC01092800082E080938100109253
:10128000850010928400B19A80916F0082608093F3
:101290006F00E881F0E0CF01880F991FE80FF91F78
:1012A000E05FFC4F8081806480838881DF91CF91F3
:1012B0001F910895FC01909162029C30A0F481E09E
:1012C000890F809362029083892F90E0FC01EE0FDA
:1012D000FF1F8E0F9F1FFC01E05FFC4F88EB9BE020
:1012E0009283818308958FEF808308951F920F92D8
:1012F0000FB60F9211242F933F934F935F936F93E9
:101300007F938F939F93AF93BF93EF93FF938091BE
:10131000610287FF05C010928500109284001BC0F7
:1013200020916102022E000C330B8091620290E04A
:101330002817390784F480916102082E000C990B5C
:10134000FC01EE0FFF1F8E0F9F1FFC01E05FFC4FA3
:10135000808186FD15C0809161028F5F809361025C
:1013600020916102022E000C330B8091620290E00A
:1013700028173907C4F4809161028C3064F113C0DE
:1013800080916102082E000C990BFC01EE0FFF1FEB
:101390008E0F9F1FFC01E05FFC4F808160E08F7328
:1013A0000E94D506D8CF8091840090918500049644
:1013B00080349C4918F480E49CE905C08091840045
:1013C00090918500049690938900809388008FEF18
:1013D000809361023BC02091840030918500809110
:1013E0006102082E000C990BFC01EE0FFF1F8E0FFF
:1013F0009F1FFC01E05FFC4F81819281820F931F50
:10140000909389008093880080916102082E000CDF
:10141000990BFC01EE0FFF1F8E0F9F1FFC01E05F79
:10142000FC4F808186FF12C080916102082E000C63
:10143000990BFC01EE0FFF1F8E0F9F1FFC01E05F59
:10144000FC4F808161E08F730E94D506FF91EF9180
:10145000BF91AF919F918F917F916F915F914F91CC
:101460003F912F910F900FBE0F901F9018951F92D4
:101470000F920FB60F9211242F933F934F935F93C8
:101480006F937F938F939F93AF93BF93EF93FF934C
:10149000E091A702F091A802309709F451C0968D0F
:1014A000A685B785858591FF04C09C91892329F481
:1014B00047C09C91892309F043C0A389B4899C91BA
:1014C0008589809589238C93868997890197F1F77F
:1014D000608D718DA685B785558538E020E0CB01FC
:1014E0000197F1F7822F90E095958795282F4C91E1
:1014F000452309F02068315091F7868D81FD2095B4
:101500008091A60290E001968F7399273091A502F1
:10151000381749F0A091A602B0E0AF5DBD4F2C9303
:101520008093A60203C0868D8160868F828D938D05
:101530000197F1F7A389B4899C918589892B8C93B4
:10154000FF91EF91BF91AF919F918F917F916F919B
:101550005F914F913F912F910F900FBE0F901F9071
:101560001895E091A702F091A802E817F90769F42D
:10157000A389B4899C918589809589238C93109245
:10158000A8021092A70281E0089580E008951F92BA
:101590000F920FB60F9211242F933F934F935F93A7
:1015A0006F937F938F939F93AF93BF93EF93FF932B
:1015B0008091B900887F803609F49CC068F5883234
:1015C00009F45BC090F4803109F454C038F48823E6
:1015D00009F4F6C0883009F44DC0F6C0883109F42A
:1015E0004CC0803209F45DC0EFC0803409F468C09B
:1015F00048F4803309F455C0883309F0E5C080937E
:10160000FD01D8C0803509F44FC0883509F45DC0AC
:10161000883409F0D9C0D6C0883909F4C7C0A8F405
:10162000883709F467C038F4883609F463C0803716
:1016300009F460C0C9C0883809F4B8C0803909F419
:101640005FC0803809F0C0C05BC0803B09F486C031
:1016500038F4803A09F466C0883A09F47FC0B4C00F
:10166000803C09F4A7C0883C09F4A4C0883B09F475
:101670008AC0AAC08091200210C090911F02809160
:101680001E02981770F5E0911F0281E08E0F809383
:101690001F02F0E0E250FE4F80818093BB0085EC9A
:1016A00086C08093FD018EC0E0911F0281E08E0F05
:1016B00080931F028091BB00F0E0E250FE4F8083D8
:1016C00090911F0280911E026EC0E0911F0281E086
:1016D0008E0F80931F028091BB00F0E0E250FE4F1E
:1016E000808380919F0281116DC081E080939E0272
:1016F00084EA61C083E08093A0021092FC01CFCF06
:101700008091FC01803208F051C0E091FC0181E041
:101710008E0F8093FC018091BB00F0E0E452FE4FFD
:101720008083BDCF85EC8093BC001092A002809195
:10173000FC01803230F4E091FC01F0E0E452FE4F15
:1017400010826091FC0170E0E091DA01F091DB0120
:101750008CED91E009951092FC0136C084E08093F5
:10176000A0021092D9011092D801E091D601F09117
:10177000D70109958091D801811105C081E080933E
:10178000D8011092B601E091D90181E08E0F8093CB
:10179000D901F0E0EA54FE4F80818093BB00909124
:1017A000D9018091D801981708F479CF85E8809302
:1017B000BC000AC085EC8093BC001092A00204C05B
:1017C0001092FD010E94D505FF91EF91BF91AF915D
:1017D0009F918F917F916F915F914F913F912F9149
:1017E0000F900FBE0F901F901895CF92DF92EF923F
:1017F000FF920F931F93CF93DF936C017A018B01BC
:10180000C0E0D0E0CE15DF0589F0D8016D918D01E3
:10181000D601ED91FC910190F081E02DC601099572
:10182000892B11F47E0102C02196ECCFC701DF9114
:10183000CF911F910F91FF90EF90DF90CF9008957F
:10184000009769F0FC0101900020E9F73197AF01A2
:10185000481B590BBC0181E693E00C94F50B80E02A
:1018600090E008958BE591E090931D0480931C0413
:101870008CE194E00C94B10A789484B5826084BDC4
:1018800084B5816084BD85B5826085BD85B5816084
:1018900085BD80916E00816080936E001092810002
:1018A00080918100826080938100809181008160BD
:1018B000809381008091800081608093800080917E
:1018C000B10084608093B1008091B000816080930A
:1018D000B00080917A00846080937A0080917A00D1
:1018E000826080937A0080917A00816080937A0090
:1018F00080917A00806880937A001092C1001092E3
:10190000A4021092A3021092A2021092A1021092BD
:10191000A00281E080939F0210929E0261E082E12A
:101920000E94D50661E083E10E94D5068091B9004E
:101930008E7F8093B9008091B9008D7F8093B9002C
:1019400088E48093B80085E48093BC00E091710343
:10195000F091720382E08083E0916D03F0916E0359
:101960001082E0916F03F09170038FEC80831092EE
:101970007903E0917503F091760386E08083E0912E
:101980007303F0917403808180618083E09173031D
:10199000F0917403808188608083E0917303F091FB
:1019A0007403808180688083E0917303F0917403F5
:1019B00080818F7D808310923704109236041092BC
:1019C00035041092340410923304109232048DE9DD
:1019D00091E09093390480933804909128049631D3
:1019E00008F057C02DEB30E03093330420933204DD
:1019F0002BE931E030933504209334042CE231E0BC
:101A0000309337042093360420916800983050F0CA
:101A100031E09E3008F430E081E001C0880F3A9553
:101A2000EAF701C084E0822B80936800983038F098
:101A30009E3040F0963148F020E030E008C02DE6BE
:101A400030E005C02BE630E002C02CE630E03093F9
:101A5000300420932F04983030F481E001C0880FC7
:101A60009A95EAF70EC0292F30E09E3018F42850DE
:101A7000310902C02E50310981E001C0880F2A953A
:101A8000EAF78093310480913804909139040197EA
:101A9000F1F78091360490913704892B21F18091E0
:101AA000A7029091A80204E08C319007E1F0009722
:101AB00011F00E94B10A80913A048E7F80933A041B
:101AC0001092A6021092A5028CE194E09093A802D5
:101AD0008093A702E0912F04F091300490818091CF
:101AE0003104892B808361E084E00E94050761E076
:101AF00083E00E94050761E08DE00E94050761E038
:101B00008CE00E94050761E08BE00E94050761E020
:101B100082E00E94050762E083E10E94050762E01F
:101B200081E10E94050762E082E10E94050787E0EB
:101B300090E090930F0380930E0310920D03109288
:101B40000C0391E090930B038DE08093020121E060
:101B500030E03093C0022093BF0222E030E03093A7
:101B6000C2022093C10224E030E03093C4022093EB
:101B7000C30228E030E03093C6022093C50220E182
:101B800030E03093C8022093C70220E230E0309367
:101B9000CA022093C90220E430E03093CC022093A3
:101BA000CB0220E830E03093CE022093CD0220E03B
:101BB00031E03093D0022093CF0220E032E0309326
:101BC000D2022093D10220E034E03093D40220935B
:101BD000D30220E038E03093D6022093D50288EF7C
:101BE0008093000187E08093F0028093E3028FE707
:101BF0008093010180E880930A038093FD02109294
:101C0000F1021092E10222E02093E4022093EE021E
:101C10002093D7028093FE02809308038093FB02F7
:101C20001092FF021092F202109200031092F3023F
:101C30002093D90233E03093E5023093E60290938B
:101C4000D8024091E7021092DA023091E802109235
:101C5000F50244604093E70234603093E80234E0D8
:101C60003093DB02409101034068409301034091AF
:101C700002034068409302038093F402109203032E
:101C80001092F602109204031092F7023093DD02D4
:101C900045E04093E9024093EA029093DC021092FF
:101CA00005031092F802109206031092F902309385
:101CB000DF0236E03093EB023093EC022093DE0239
:101CC0001092E0021092FC029093ED029093EF02CA
:101CD0009093E20280930703809309038093FA02B2
:101CE00020910E0330910F032830310518F5109222
:101CF000BE0260910E0370910F0380E090E00E949D
:101D000011159B01AC0160E070E080E090E40E945E
:101D100077150E94C7150E94E21470930F03609319
:101D20000E0380910E0390910F038058909580933D
:101D30000A0324C09093BE0260910E0370910F03BA
:101D40006850710980E090E00E9411159B01AC0180
:101D500060E070E080E090E40E9477150E94C71573
:101D60000E94E21470930F0360930E0380910E03A0
:101D700090910F0327E082278093F0028091360331
:101D800090913703892B09F081C081E090E0909316
:101D900037038093360326E030E03093BD02209372
:101DA000BC021092BB021092BA021092B9021092B9
:101DB000B8024091B4025091B5026091B6027091A0
:101DC000B702452B462B472B89F09093B90280939D
:101DD000B8028091B2029091B3029093B1028093C5
:101DE000B002809170008E7F8093700080917000AF
:101DF0008E7F809370008091B0008C7F8093B000C4
:101E00008091B100877F8093B1008091B6008F7D73
:101E10008093B600809170008D7F809370008091D8
:101E2000B10084608093B1008091B1008C7F809379
:101E3000B1008AEF90E09093AF028093AE0282E00F
:101E400090E0A0E0B0E08093B4029093B502A0933C
:101E5000B602B093B70283EF91E09093B302809300
:101E6000B2021092AA021092AB021092AC0210922F
:101E7000AD021092A9028091AE029091AF028093C0
:101E8000B2008091700081608093700061E081E019
:101E90000E943708109259031092580310925D0364
:101EA00010925E0310925F031092600310925A0327
:101EB00010925C0381E080935B03109249031092BF
:101EC0005503109248031092560310924703109244
:101ED000440310924A0310924B0310924C03109249
:101EE0004D0384EC99E090933B0380933A03109266
:101EF00041031092400388E893E190933903809363
:101F0000380364E070E089E194E00E94FE0863E039
:101F100070E086E194E00E94FE086AE570E089E1E5
:101F200094E00E947B086DE270E086E194E00E94FC
:101F30007B0864EC79E080E090E00E944107E0914A
:101F40001904F0E0CF01880F991FE80FF91FE05F37
:101F5000FC4F80818F7B8083E0911604F0E0CF01FD
:101F6000880F991FE80FF91FE05FFC4F80818F7B7E
:101F700080836DE070E083E194E00E94FE086CE0F5
:101F800070E080E194E00E94FE0864E670E083E186
:101F900094E00E947B086CE870E080E194E00E948D
:101FA0007B0864EC79E080E090E00E944107E091DA
:101FB0001304F0E0CF01880F991FE80FF91FE05FCD
:101FC000FC4F80818F7B8083E0911004F0E0CF0193
:101FD000880F991FE80FF91FE05FFC4F80818F7B0E
:101FE00080836BE070E08DE094E00E94FE0862E088
:101FF00070E08AE094E00E94FE086AE570E08DE0FF
:1020000094E00E947B0864E170E08AE094E00E9422
:102010007B0864EC79E080E090E00E944107E09169
:102020000D04F0E0CF01880F991FE80FF91FE05F62
:10203000FC4F80818F7B8083E0910A04F0E0CF0128
:10204000880F991FE80FF91FE05FFC4F80818F7B9D
:10205000808360E081E00E943708CCE8D0E048E06F
:10206000242E312C5AE5452E512C67E0662E712C1A
:1020700075E0C72ED12CE4E0AE2EB12CF3E08F2E0C
:10208000912C0E947B0720915D0330915E0340916B
:102090005F0350916003DC01CB01821B930BA40B07
:1020A000B50B893B9B40A105B10528F081E08093E9
:1020B0005C0380935B038091340390913503892BFB
:1020C00009F180915A0381111FC081E080935A0366
:1020D00080915803909159030196877099279093A6
:1020E0005903809358030E947B0760935D037093AC
:1020F0005E0380935F039093600310925C031092E1
:10210000570302C010925A0380915B038111109211
:102110005B0380915803909159038130910509F434
:1021200086C01CF4892B49F0E4C18230910509F482
:1021300093C0039709F49FC0DCC1809149038823B1
:1021400081F08091190490E09C01220F331F820FCF
:10215000931FFC01E05FFC4F80818F7B8083109296
:10216000490380915503882381F08091160490E003
:102170009C01220F331F820F931FFC01E05FFC4F75
:1021800080818F7B80831092550380914803882340
:1021900081F08091130490E09C01220F331F820F85
:1021A000931FFC01E05FFC4F80818F7B8083109246
:1021B000480380915603882381F08091100490E0B9
:1021C0009C01220F331F820F931FFC01E05FFC4F25
:1021D00080818F7B808310925603809147038823F0
:1021E00081F080910D0490E09C01220F331F820F3B
:1021F000931FFC01E05FFC4F80818F7B80831092F6
:10220000470380914403882309F47BC180910A0429
:1022100090E09C01220F331F820F931FFC01E05FAF
:10222000FC4F80818F7B8083109244036AC1809130
:102230005C03882309F465C181E080935603809391
:10224000550384E390E09093540380935303D09319
:102250005203C093510355C180915C03882309F454
:1022600050C161E087E00E94370862E08CE194E0B1
:102270000E94480546C180915C03882309F441C14E
:10228000E0914003F0914103EB30F10508F024C1E7
:10229000EC5CFF4F0C94C81481E08093440389E602
:1022A00090E090934303809342030E947B076093E6
:1022B0003C0370933D0380933E0390933F0381E082
:1022C00090E01EC00E947B0720913C0330913D03AB
:1022D00040913E0350913F037B018C01E21AF30AC7
:1022E000040B150B80913A0390913B03A0E0B0E002
:1022F0008E159F05A007B10708F003C182E090E0AA
:102300009093410380934003FCC081E08093470396
:10231000D0934603C09345030E947B0760933C0320
:1023200070933D0380933E0390933F03909241034B
:1023300080924003E6C00E947B0720913C033091CD
:102340003D0340913E0350913F037B018C01E21A13
:10235000F30A040B150B80913A0390913B03A0E024
:10236000B0E08E159F05A007B10708F0CAC0B09273
:102370004103A0924003C5C00DE210E01093520348
:1023800000935103D0935403C09353030E947B07DF
:1023900060933C0370933D0380933E0390933F030F
:1023A000D0924103C0924003ACC00E947B072091B1
:1023B0003C0330913D0340913E0350913F037B012C
:1023C0008C01E21AF30A040B150B809138039091EB
:1023D0003903A0E0B0E08E159F05A007B10708F013
:1023E00090C0109255031092560306E010E068C0AA
:1023F00050924603409245030E947B0760933C0342
:1024000070933D0380933E0390933F03709241038A
:102410006092400376C00E947B0720913C0330917C
:102420003D0340913E0350913F037B018C01E21A32
:10243000F30A040B150B80913A0390913B03A0E043
:10244000B0E08E159F05A007B10708F05AC01092A2
:102450004703309241032092400353C004E110E04F
:1024600010934303009342030E947B0760933C0355
:1024700070933D0380933E0390933F0389E090E087
:102480003FCF0E947B0720913C0330913D03409158
:102490003E0350913F037B018C01E21AF30A040BC7
:1024A000150B80913A0390913B03A0E0B0E08E15AC
:1024B0009F05A007B10728F5109244030AE010E039
:1024C00010934103009340031CC061E082E00E942E
:1024D000370887E691E006C061E085E00E94370892
:1024E0008AE791E00E94200C87E791E00E94200C8F
:1024F00008C08CE991E00E94200C109259031092C0
:10250000580383E10E94AC0621E0892B09F420E006
:102510002093500381E10E94AC0621E0892B09F44D
:1025200020E020934F0382E10E94AC0621E0892B3A
:1025300009F420E020934E039091490380911904FF
:102540009923C9F090E09C01220F331F820F931F43
:10255000FC01E05FFC4F808186FD06C064E070E016
:1025600089E194E00E94FE0860E070E089E194E077
:102570000E947B080EC090E09C01220F331F820F47
:10258000931FFC01E05FFC4F808186FF02C08F7BC0
:10259000808390915503809116049923D9F090E09F
:1025A0009C01220F331F820F931FFC01E05FFC4F41
:1025B000808186FD06C063E070E086E194E00E94C1
:1025C000FE08609151037091520386E194E00E94ED
:1025D0007B080EC090E09C01220F331F820F931FD7
:1025E000FC01E05FFC4F808186FF02C08F7B80830F
:1025F00090914803809113049923C9F090E09C01C5
:10260000220F331F820F931FFC01E05FFC4F80817C
:1026100086FD06C06DE070E083E194E00E94FE0854
:1026200060E070E083E194E00E947B080EC090E0DF
:102630009C01220F331F820F931FFC01E05FFC4FB0
:10264000808186FF02C08F7B8083909156038091AA
:1026500010049923D9F090E09C01220F331F820FC0
:10266000931FFC01E05FFC4F808186FD06C06CE09B
:1026700070E080E194E00E94FE0860915303709145
:10268000540380E194E00E947B080EC090E09C011E
:10269000220F331F820F931FFC01E05FFC4F8081EC
:1026A00086FF02C08F7B80839091470380910D0449
:1026B0009923D9F090E09C01220F331F820F931FC2
:1026C000FC01E05FFC4F808186FD06C06BE070E09E
:1026D0008DE094E00E94FE086091450370914603EE
:1026E0008DE094E00E947B080EC090E09C01220FD8
:1026F000331F820F931FFC01E05FFC4F808186FF38
:1027000002C08F7B80839091440380910A049923B7
:10271000D9F090E09C01220F331F820F931FFC0120
:10272000E05FFC4F808186FD06C062E070E08AE0D9
:1027300094E00E94FE0860914203709143038AE096
:1027400094E00E947B080EC090E09C01220F331F92
:10275000820F931FFC01E05FFC4F808186FF02C067
:102760008F7B80830E947B0720914A0330914B032B
:1027700040914C0350914D03DC01CB01821B930B24
:10278000A40BB50B893E9340A105B10550F00E9402
:102790007B0760934A0370934B0380934C039093A1
:1027A0004D030E949B016DCC109264031092630351
:1027B00088EE93E0A0E0B0E0809365039093660319
:1027C000A0936703B09368032BE331E03093620377
:1027D0002093610325EC30E030936E0320936D036A
:1027E00024EC30E03093700320936F0320EC30E052
:1027F000309372032093710321EC30E03093740323
:102800002093730322EC30E030937603209375031A
:1028100026EC30E0309378032093770310927A030C
:1028200010927B0310927C0310927D03109201049E
:10283000109200048093020490930304A093040474
:10284000B09305042BE431E03093FF032093FE03A3
:1028500010921F0410921E04809320049093210470
:10286000A0932204B09323048BE591E090931D0480
:1028700080931C0410923304109232041092350499
:1028800010923404109237041092360410923904D6
:102890001092380460913A046E7F6D7F60933A0421
:1028A0006695617081E0682786E00E94D50661E048
:1028B00086E00E940507ECE4F1E0E491E0932C044B
:1028C000E8E3F1E0E491F0E0EE0FFF1FE25EFE4F7F
:1028D0008591949190932E0480932D0460E085E07F
:1028E0000E94050780913A0481FD04C061E085E003
:1028F0000E94D50685E080932804EBE4F1E0E491A2
:10290000E0932904E7E3F1E0E491F0E0EE0FFF1F2C
:10291000E85DFE4F8591949190932B0480932A0457
:1029200089E194E00E945A0986E194E00E945A09E4
:1029300083E194E00E945A0980E194E00E945A09E0
:102940008DE094E00E945A098AE094E00C945A09C0
:10295000991B79E004C0991F961708F0961B881FF1
:102960007A95C9F78095089597FB072E16F4009481
:1029700007D077FD09D00E94CE1407FC05D03EF4A5
:10298000909581959F4F0895709561957F4F08951B
:10299000EE0FFF1F0590F491E02D0994AA1BBB1BBD
:1029A00051E107C0AA1FBB1FA617B70710F0A61B4F
:1029B000B70B881F991F5A95A9F780959095BC0170
:1029C000CD0108950E94561588F09F5798F0B92FB1
:1029D0009927B751B0F0E1F0660F771F881F991F54
:1029E0001AF0BA95C9F714C0B13091F00E94701571
:1029F000B1E008950C947015672F782F8827B85F81
:102A000039F0B93FCCF3869577956795B395D9F7AB
:102A10003EF490958095709561957F4F8F4F9F4FB5
:102A20000895E89409C097FB3EF4909580957095C1
:102A300061957F4F8F4F9F4F9923A9F0F92F96E90A
:102A4000BB279395F695879577956795B795F1117F
:102A5000F8CFFAF4BB0F11F460FF1BC06F5F7F4F1C
:102A60008F4F9F4F16C0882311F096E911C077232E
:102A700021F09EE8872F762F05C0662371F096E837
:102A8000862F70E060E02AF09A95660F771F881F06
:102A9000DAF7880F9695879597F9089557FD90581E
:102AA000440F551F59F05F3F71F04795880F97FB12
:102AB000991F61F09F3F79F08795089512161306CC
:102AC0001406551FF2CF4695F1DF08C016161706FB
:102AD0001806991FF1CF8695710561050894089530
:102AE000E894BB2766277727CB0197F90895FA0169
:102AF000EE0FFF1F309621053105A1F1611571051B
:102B000061F48038BFE39B0749F1689490388105F0
:102B100061F08038BFEF9B0741F099234AF5FF3FF2
:102B2000E1053105210519F1E8940894E795D901EB
:102B3000AA2329F4AB2FBE2FF85FD0F310C0FF5F9C
:102B400070F4A695E0F7F73950F019F0FF3A38F431
:102B50009F779F930DD00F9007FC9058089546F0F3
:102B60000C94541660E070E080E89FE308954FE70E
:102B70009F775F934F933F932F930E94C8162F9197
:102B80003F914F915F910E9444170C94F3150E945E
:102B90005615E8F09E37E8F09639B8F49E3848F4B8
:102BA000672F782F8827985FF9CF86957795679557
:102BB00093959539D0F3B62FB1706B0F711D811DB0
:102BC00020F487957795679593950C942B160C9424
:102BD00046160C94711529F416F00C9425160C94D5
:102BE00070150C9454160E945615A8F39638A0F749
:102BF00007F80F92E8942BE33AEA48EB5FE70E946C
:102C00005A170F920F920F924DB75EB70F920E9414
:102C10001017EEE7F0E00E9457164F915F91EF9189
:102C2000FF91E595EE1FFF1F49F0FE57E06844272E
:102C3000EE0F441FFA95E1F74195550B0E948A1655
:102C40000F9007FE0C947E16089597F99F6780E811
:102C500070E060E00895882371F4772321F09850A4
:102C6000872B762F07C0662311F499270DC090514A
:102C7000862B70E060E02AF09A95660F771F881F18
:102C8000DAF7880F9695879597F908959F3F31F069
:102C9000915020F4879577956795B795880F911D8A
:102CA0009695879597F908959FEF80EC0895DF93A7
:102CB000CF931F930F93FF92EF92DF927B018C01D2
:102CC000689406C0DA2EEF010E945717FE01E894BF
:102CD000A5912591359145915591A6F3EF010E945B
:102CE000C917FE019701A801DA9469F7DF90EF9008
:102CF000FF900F911F91CF91DF9108959B01AC013F
:102D000060E070E080E89FE30C941E180C94251698
:102D10000C9446160E945615D8F39923C9F3940FC4
:102D2000511DA3F39150504094F059F0882332F094
:102D3000660F771F881F91505040C1F79E3F510585
:102D40002CF7880F911D9695879597F908955F3F09
:102D5000ACF0983E9CF0BB27869577956795B79524
:102D600008F4B1609395C1F7BB0F58F711F460FFF9
:102D7000E8CF6F5F7F4F8F4F9F4FE3CF0C9471155C
:102D800016F00C9446160C94541668940C94251660
:102D90000E945615A8F39923C1F3AEF3DF93CF93A6
:102DA0001F930F93FF92C92FDD2788232AF02197C5
:102DB000660F771F881FDAF720E030E040E85FEB0E
:102DC0009FE3883920F0803E38F021968F770E946B
:102DD000B217E6EAF0E004C00E94B217E3EDF0E0BB
:102DE0000E9457168B01BE01EC01FB2E6F57710933
:102DF0007595771F880B990B0E94131528E132E710
:102E000041E35FE30E945717AF2D9801AE01FF9099
:102E10000F911F91CF91DF910E94C9170C949E18BA
:102E2000FA01DC01AA0FBB1F9B01AC01BF5728F4BC
:102E3000222733274427507820C0B75190F4AB2F76
:102E40000024469537952795011CA395D2F30020C1
:102E500071F0220F331F441FB395DAF30ED00C9498
:102E6000B11761307105A0E88A07B94630F49B01BB
:102E7000AC016627772788279078309621F0208349
:102E800031834283538308950E9457170C949E18F0
:102E90000E94901838F00E94971820F0952311F0A6
:102EA0000C9425160C94541611240C9471150E9440
:102EB0004E1570F3959FC1F3950F50E0551F629F1B
:102EC000F001729FBB27F00DB11D639FAA27F00D83
:102ED000B11DAA1F649F6627B00DA11D661F829FAA
:102EE0002227B00DA11D621F739FB00DA11D621F8F
:102EF000839FA00D611D221F749F3327A00D611DAC
:102F0000231F849F600D211D822F762F6A2F11248D
:102F10009F5750409AF0F1F088234AF0EE0FFF1FC0
:102F2000BB1F661F771F881F91505040A9F79E3F17
:102F3000510580F00C9425160C9471155F3FE4F355
:102F4000983ED4F3869577956795B795F795E7956D
:102F50009F5FC1F7FE2B880F911D9695879597F976
:102F600008955058BB27AA270E94C9170C949E1891
:102F70000E94901838F00E94971820F039F49F3F73
:102F800019F426F40C9454160EF4E095E7FB0C9417
:102F90002516E92F0E944E1558F3BA1762077307DA
:102FA0008407950720F079F4A6F50C9470150EF4BB
:102FB000E0950B2EBA2FA02D0B01B90190010C0149
:102FC000CA01A0011124FF27591B99F0593F50F461
:102FD000503E68F11A16F040A22F232F342F4427B9
:102FE000585FF3CF469537952795A795F0405395B1
:102FF000C9F77EF41F16BA0B620B730B840BBAF081
:103000009150A1F0FF0FBB1F661F771F881FC2F7EB
:103010000EC0BA0F621F731F841F48F487957795FF
:103020006795B795F7959E3F08F0B0CF9395880FB9
:1030300008F09927EE0F9795879508950E9432180A
:103040000C949E180E94971858F00E94901840F017
:1030500029F45F3F29F00C94251651110C94711539
:103060000C9454160E944E1568F39923B1F355231E
:1030700091F3951B550BBB27AA276217730784078B
:1030800038F09F5F5F4F220F331F441FAA1FA9F321
:1030900035D00E2E3AF0E0E832D091505040E6950F
:1030A000001CCAF72BD0FE2F29D0660F771F881F70
:1030B000BB1F261737074807AB07B0E809F0BB0B63
:1030C000802DBF01FF2793585F4F3AF09E3F510577
:1030D00078F00C9425160C9471155F3FE4F3983E3C
:1030E000D4F3869577956795B795F7959F5FC9F760
:1030F000880F911D9695879597F90895E1E0660FE1
:10310000771F881FBB1F621773078407BA0720F059
:10311000621B730B840BBA0BEE1F88F7E0950895C2
:1031200000240A94161617061806090608950024A6
:103130000A9412161306140605060895092E039420
:10314000000C11F4882352F0BB0F40F4BF2B11F494
:1031500060FF04C06F5F7F4F8F4F9F4F089581E0E6
:1031600090E0F8940C941719052E97FB1EF4009428
:103170000E94CB1857FD07D00E94E61807FC03D029
:103180004EF40C94CB1850954095309521953F4FB7
:103190004F4F5F4F089590958095709561957F4F43
:1031A0008F4F9F4F08950E940819A59F900DB49FBF
:1031B000900DA49F800D911D11240895B7FF0C94CC
:1031C000D3180E94D318821B930B0895A1E21A2EE4
:1031D000AA1BBB1BFD010DC0AA1FBB1FEE1FFF1FBB
:1031E000A217B307E407F50720F0A21BB30BE40B0B
:1031F000F50B661F771F881F991F1A9469F7609552
:103200007095809590959B01AC01BD01CF0108950B
:10321000A29FB001B39FC001A39F700D811D112417
:10322000911DB29F700D811D1124911D089510E014
:10323000CEEAD0E004C0FE010E94C8142196CF3A25
:08324000D107C9F7F894FFCF94
:10324800FFFF0D010000000100020004000800104B
:10325800002000400080000001000200040008FE79
:10326800FFFDFFFBFFF7FFEFFFDFFFBFFF7FFFFF64
:10327800FEFFFDFFFBFFF7000000003201F50BFB2E
:1032880000D900ED0079010000000041062D062557
:1032980006160608060706000000004805F50B9C00
:1032A80005B4052F054705434F5552534520434F55
:1032B8004D504C455445000D0A004572726F723AE4
:1032C80020756E6B6E6F776E20707972616D6964B0
:1032D8002064726F7020696E64657800746F6F2067
:1032E8006D616E7920627574746F6E207075736885
:0432F80065730000FA
:00000001FF
