:100000000C9463000C948B000C948B000C941D07D3
:100010000C941D070C941D070C948B000C948B0002
:100020000C948B000C9476040C948B000C94F605C5
:100030000C948B000C948B000C948B000C948B0014
:100040000C942C040C948B000C941F030C94F90258
:100050000C948B000C948B000C948B000C948B00F4
:100060000C944E080C948B00000000080002010064
:100070000003040700000000000000000000000072
:10008000240027002A0000000000250028002B0083
:1000900000000000230026002900040404040404D6
:1000A0000404020202020202030303030303010227
:1000B00004081020408001020408102001020408F6
:1000C0001020FE17E81711241FBECFEFD8E0DEBFC7
:1000D000CDBF13E0A0E0B1E0E8EAF7E302C005908D
:1000E0000D92A231B107D9F727E0A2E1B3E001C038
:1000F0001D92A430B207E1F710E0C2E6D0E004C0E0
:100100002197FE010E942919C136D107C9F70E9423
:100110009B0C0C94C71B0C940000FC01918D828DEC
:10012000981761F0828DDF01A80FB11D5D968C914B
:10013000928D9F5F9F73928F90E008958FEF9FEF56
:100140000895FC01918D828D981731F0828DE80F12
:10015000F11D858D90E008958FEF9FEF0895FC01CC
:10016000918D228D892F90E0805C9F4F821B910999
:100170008F73992708958EE895E00E94AF0021E0E3
:10018000892B09F420E0822F0895FC01848DDF0182
:10019000A80FB11DA35ABF4F2C91848D90E00196FA
:1001A0008F739927848FA689B7892C93A089B189E9
:1001B0008C9180648C93938D848D981306C00288F3
:1001C000F389E02D80818F7D80830895EF92FF92E7
:1001D0000F931F93CF93DF93EC0181E0888F9B8D6A
:1001E0008C8D981305C0E889F989808185FD24C02C
:1001F000F62E0B8D10E00F5F1F4F0F731127E02EAF
:100200008C8DE8120CC00FB607FCFACFE889F9898B
:10021000808185FFF5CFCE010E94C500F1CF8B8D87
:10022000FE01E80FF11DE35AFF4FF0820B8FEA89C0
:10023000FB898081806207C0EE89FF896083E8893D
:10024000F98980818064808381E090E0DF91CF91A3
:100250001F910F91FF90EF900895CF93DF93EC01E2
:10026000888D8823C9F0EA89FB89808185FD05C0D6
:10027000A889B9898C9186FD0FC00FB607FCF5CF10
:10028000808185FFF2CFA889B9898C9185FFEDCF58
:10029000CE010E94C500E7CFDF91CF91089580E0A5
:1002A00090E0892B29F00E94BB0081110C94000082
:1002B00008953FB7F89480913F0590914005A09133
:1002C0004105B091420526B5A89B05C02F3F19F006
:1002D0000196A11DB11D3FBFBA2FA92F982F8827C6
:1002E000820F911DA11DB11DBC01CD0142E0660F21
:1002F000771F881F991F4A95D1F7089520911403FD
:10030000309115032817390771F490910F058091EA
:100310000E05981741F0E0910F05F0E0E253FB4F16
:10032000808190E008958FEF9FEF089508951F93C7
:10033000CF93DF93DC015C962D913C915D97211565
:10034000310539F481E090E013969C938E931297D7
:100350003DC05196ED91FC91529750969C915097CB
:10036000892F80951FB75E964C915E9741FB77274A
:1003700070F941FD6095F8944081772311F0492B85
:1003800001C048234083E9012197F1F748E05081FB
:1003900060FF02C0592B01C058235083E901219707
:1003A000F1F76695415099F7772321F090818923E1
:1003B000808303C08081982B90831FBF5C968D91B2
:1003C0009C915D970197F1F721E030E0C901DF9141
:1003D000CF911F9108952091140330911503281790
:1003E000390771F480910E0520910F0590E0805C33
:1003F0009F4F821B910960E470E00E9401190895EB
:1004000080E090E00895209114033091150328179F
:100410003907B9F490910F0580910E05981789F06E
:10042000E0910F05F0E0E253FB4F808120910F0532
:1004300030E02F5F3F4F2F73332720930F0590E05D
:1004400008958FEF9FEF0895E0911403F091150345
:10045000E817F90769F4A389B4899C918589809587
:1004600089238C93109215031092140381E0089550
:1004700080E0089585ED8093BC008091BC0084FDF0
:10048000FCCF1092690508954091A904262F30E011
:10049000240F311D21323105DCF42091690524300F
:1004A000C9F4FC0180E090E0861758F43091A9046B
:1004B0002191DC01A957BB4FA30FB11D2C930196CD
:1004C000F3CF8091A904680F6093A90480E0089598
:1004D00081E0089582E008950895E09113038091EA
:1004E0001203E81730F4F0E0EF5EFA4F808190E0FD
:1004F00008958FEF9FEF0895909113038091120359
:10050000981750F4E92FF0E0EF5EFA4F208130E0C9
:100510009F5F9093130302C02FEF3FEFC90108952F
:100520008091120390E020911303821B910908959A
:10053000CF92DF92EF92FF920F931F93CF93DF93AF
:100540007C01262F972F8A0180916A05882391F0DC
:10055000C62FD72F6E01C40ED51ECC15DD0571F048
:100560006991D701ED91FC910190F081E02DC701D7
:100570000995F3CF642F822F0E944402C801DF91B6
:10058000CF911F910F91FF90EF90DF90CF90089542
:10059000CF93DF931F92CDB7DEB7698320916A05B1
:1005A0002223D1F020918D05203240F021E030E06F
:1005B000FC013383228380E090E015C080916B05BD
:1005C000E82FF0E0E459FA4F998190838F5F809390
:1005D0006B0580938D0505C061E0CE0101960E94F8
:1005E000440281E090E00F90DF91CF9108950E9446
:1005F000471A1F920F920FB60F9211242F933F9319
:100600004F935F936F937F938F939F93AF93BF931A
:10061000EF93FF938EE895E00E94C500FF91EF9164
:10062000BF91AF919F918F917F916F915F914F910A
:100630003F912F910F900FBE0F901F9018951F9212
:100640000F920FB60F9211242F938F939F93EF93D6
:10065000FF93E0919E05F0919F058081E091A405B4
:10066000F091A50582FD12C090818091A7058F5F52
:100670008F732091A805821751F0E091A705F0E053
:10068000E257FA4F958F8093A70501C08081FF91B3
:10069000EF919F918F912F910F900FBE0F901F9010
:1006A0001895833081F028F4813099F08230A1F0E0
:1006B00008958730A9F08830B9F08430D1F4809162
:1006C00080008F7D03C0809180008F7780938000B1
:1006D000089584B58F7702C084B58F7D84BD089559
:1006E0008091B0008F7703C08091B0008F7D8093A0
:1006F000B00008951F93CF93DF93282F30E0F901C6
:10070000E859FF4F8491F901E255FF4FD491F90167
:10071000E656FF4FC491CC23C9F0162F81110E94D9
:100720005103EC2FF0E0EE0FFF1FEA57FF4FA591AA
:10073000B4918FB7F894111105C09C91ED2FE095FD
:10074000E92302C0EC91ED2BEC938FBFDF91CF91A9
:100750001F910895CF93DF9390E0FC01E255FF4F86
:100760002491FC01E656FF4F8491882361F190E0CB
:10077000880F991FFC01E458FF4FC591D491FC01EB
:10078000EA57FF4FA591B491611109C09FB7F89442
:100790008881209582238883EC912E230BC06230C0
:1007A00061F49FB7F8943881822F809583238883E2
:1007B000EC912E2B2C939FBF06C08FB7F894E88145
:1007C0002E2B28838FBFDF91CF9108958F929F9218
:1007D000AF92BF92CF92DF92EF92FF926B017C01BA
:1007E0000E9459014B015C01C114D104E104F104E0
:1007F000F1F00E945901DC01CB0188199909AA097D
:10080000BB09883E9340A105B10570F321E0C21AEF
:10081000D108E108F10888EE880E83E0981EA11C3B
:10082000B11CC114D104E104F10419F7DDCFFF902C
:10083000EF90DF90CF90BF90AF909F908F900895F2
:100840002FB7F89460913B0570913C0580913D0570
:1008500090913E052FBF08951F920F920FB60F92F1
:1008600011242F933F938F939F93AF93BF938091C6
:100870003B0590913C05A0913D05B0913E0530911E
:100880003A0523E0230F2D3720F40196A11DB11D59
:1008900005C026E8230F0296A11DB11D20933A053D
:1008A00080933B0590933C05A0933D05B0933E0596
:1008B00080913F0590914005A0914105B09142057E
:1008C0000196A11DB11D80933F0590934005A09313
:1008D0004105B0934205BF91AF919F918F913F9198
:1008E0002F910F900FBE0F901F9018951F920F928F
:1008F0000FB60F9211242F933F934F935F936F93F3
:100900007F938F939F93AF93BF93EF93FF938091C8
:100910003805909139058093B2008091340590910B
:100920003505A0913605B09137050196A11DB11D81
:100930008093340590933505A0933605B093370521
:100940008091340590913505A0913605B091370519
:1009500080913305811112C081E08093330510929C
:100960003405109235051092360510923705E09146
:100970003105F0913205099510923305FF91EF9101
:10098000BF91AF919F918F917F916F915F914F91A7
:100990003F912F910F900FBE0F901F901895FC0163
:1009A000838591E090936A0580938C0510926B0586
:1009B00010928D0583E796E00E94C80281E00C94B6
:1009C000130A6AE40C94CF04CF92DF92EF92FF9265
:1009D000CF93DF93EC0160E40E94CF048B8590916C
:1009E00069059111FCCF91E090936905909368059A
:1009F0002FEF209367051092660523E0209365058D
:100A00009093440590914405880F892B8093440569
:100A100080914305813061F4109243058091440533
:100A20008093BB008091BC0083FDF8CF85EC01C0B2
:100A300085EE8093BC00809169058130E1F380915F
:100A40006605843018F48091660501C084E0A5E451
:100A5000B5E021E135E0F9019E2F921B981718F4BB
:100A60009D919193F9CF109213038093120383E722
:100A700096E00E947C02F82E83E796E00E947C02BA
:100A8000C12CD12CDF2C8C299D296C01990FEE08EB
:100A9000FF0883E796E00E947C0283E796E00E94CD
:100AA0007C028881882341F066277727CB016C1967
:100AB0007D098E099F0902C0C701B601DF91CF9160
:100AC000FF90EF90DF90CF900895FC0190819C30D3
:100AD00080F5818128E830E0281B310987FD3395B6
:100AE000220F331F220F331F621773077CF082819E
:100AF00028E532E0281B310987FD3395220F331F8B
:100B0000220F331F621773070CF49B012250310927
:100B1000220F331F4FB7F894892F90E0FC01EE0F9E
:100B2000FF1F8E0F9F1FFC01E158F94F3283218375
:100B30004FBF08951F93CF93DF93EC01162F888149
:100B40008C3008F04EC061E0812F0E94AA0388819A
:100B5000E82FF0E09F01220F331FE20FF31FE1584F
:100B6000F94F1F739081907C192B108319821A8280
:100B70006CE00E94F5189CE0899FB001112440E0D0
:100B800050E09A01260F371FF901EE0FFF1F2E0FBD
:100B90003F1FF901E158F94F908196FD16C04F5F54
:100BA0005F4F4C30510569F781110FC010928000E2
:100BB00082E0809381001092850010928400B19AA7
:100BC00080916F00826080936F00E881F0E0CF0138
:100BD000880F991FE80FF91FE158F94F8081806451
:100BE00080838881DF91CF911F9108951F920F928A
:100BF0000FB60F9211242F933F934F935F936F93F0
:100C00007F938F939F93AF93BF93EF93FF938091C5
:100C1000100587FF05C010928500109284001BC04C
:100C200020911005022E000C330B8091A30690E05A
:100C30002817390784F480911005082E000C990BB1
:100C4000FC01EE0FFF1F8E0F9F1FFC01E158F94FB3
:100C5000808186FD15C0809110058F5F80931005FF
:100C600020911005022E000C330B8091A30690E01A
:100C700028173907C4F4809110058C3064F113C033
:100C800080911005082E000C990BFC01EE0FFF1F40
:100C90008E0F9F1FFC01E158F94F808160E08F7338
:100CA0000E947A03D8CF80918400909185000496A9
:100CB00080349C4918F480E49CE905C0809184004C
:100CC00090918500049690938900809388008FEF1F
:100CD000809310053BC02091840030918500809165
:100CE0001005082E000C990BFC01EE0FFF1F8E0F54
:100CF0009F1FFC01E158F94F81819281820F931F60
:100D0000909389008093880080911005082E000C34
:100D1000990BFC01EE0FFF1F8E0F9F1FFC01E15886
:100D2000F94F808186FF12C080911005082E000CBB
:100D3000990BFC01EE0FFF1F8E0F9F1FFC01E15866
:100D4000F94F808161E08F730E947A03FF91EF91E8
:100D5000BF91AF919F918F917F916F915F914F91D3
:100D60003F912F910F900FBE0F901F9018950F93EA
:100D70001F93CF93DF93EC01162F042F1B821A824F
:100D800088EE93E0A0E0B0E08C839D83AE83BF83C8
:100D900089E091E0998388831F8A1E8A198E188EB4
:100DA0001B8E1A8E1D8E1C8E6E8D6E7F20FB61F940
:100DB0006E8F6695617081E06827842F0E947A03A8
:100DC00061E0802F0E94AA03402F50E0FA01E25513
:100DD000FF4FE491E88BFA01E656FF4FE491F0E013
:100DE000EE0FFF1FEA57FF4F859194919A8B898BE5
:100DF00060E0812F0E94AA038E8D81FD04C061E016
:100E0000812F0E947A031C87612F70E0FB01E2555D
:100E1000FF4FE491ED87FB01E656FF4FE491F0E0D0
:100E2000EE0FFF1FE057FF4F859194919F878E87AC
:100E3000DF91CF911F910F9108951F920F920FB6DE
:100E40000F9211242F933F934F935F936F937F9350
:100E50008F939F93AF93BF93EF93FF93E09114030E
:100E6000F0911503309709F451C0968DA685B7858A
:100E7000858591FF04C09C91892329F447C09C91EA
:100E8000892309F043C0A389B4899C918589809501
:100E900089238C93868997890197F1F7608D718DED
:100EA000A685B785558538E020E0CB010197F1F79D
:100EB000822F90E095958795282F4C91452309F036
:100EC0002068315091F7868D81FD209580910E0527
:100ED00090E001968F73992730910F05381749F0EC
:100EE000A0910E05B0E0A253BB4F2C9380930E054A
:100EF00003C0868D8160868F828D938D0197F1F777
:100F0000A389B4899C918589892B8C93FF91EF915A
:100F1000BF91AF919F918F917F916F915F914F9111
:100F20003F912F910F900FBE0F901F901895CF9368
:100F3000DF93EC018A8D9B8D892BF1F08091140356
:100F4000909115038C179D07B9F0009711F00E943E
:100F500024028E8D8E7F8E8F10920E0510920F05BB
:100F6000D0931503C0931403EB89FC8990818D897C
:100F7000892B808381E001C080E0DF91CF910895CB
:100F8000CF93DF93EC019A01AB011B8E1A8E198E61
:100F9000188E1F8A1E8A60E079E08DE390E00E943F
:100FA000A81BF9012430310518F0C901039702C0CC
:100FB00081E090E09D8F8C8F6C85663108F069C070
:100FC000C901969587958431910510F0439702C029
:100FD00081E090E09F8B8E8B369718F0C9010597C2
:100FE00002C081E090E0998F888FC901880F991F16
:100FF000280F391F36952795369527952D303105C1
:1010000018F02C50310902C021E030E03B8F2A8FCC
:1010100090916800683050F021E06E3008F420E0D4
:1010200081E001C0880F2A95EAF701C084E0892B8E
:10103000809368008C85883038F08E3040F086319F
:1010400048F020E030E008C02DE630E005C02BE697
:1010500030E002C02CE630E03C8B2B8B883030F443
:1010600091E001C0990F8A95EAF70EC0282F30E071
:101070008E3018F42850310902C02E50310991E009
:1010800001C0990F2A95EAF79D8B8C8D9D8D019754
:10109000F1F7CE01DF91CF910C9497071F920F9239
:1010A0000FB60F9211242F933F934F935F936F933B
:1010B0007F938F939F93AF93BF93EF93FF93809111
:1010C000B900887F803609F49CC068F5883209F43D
:1010D0005BC090F4803109F454C038F4882309F4DB
:1010E000F6C0883009F44DC0F6C0883109F44CC010
:1010F000803209F45DC0EFC0803409F468C048F460
:10110000803309F455C0883309F0E5C08093670542
:10111000D8C0803509F44FC0883509F45DC08834E3
:1011200009F0D9C0D6C0883909F4C7C0A8F48837F7
:1011300009F467C038F4883609F463C0803709F4CD
:1011400060C0C9C0883809F4B8C0803909F45FC0EC
:10115000803809F0C0C05BC0803B09F486C038F419
:10116000803A09F466C0883A09F47FC0B4C0803C74
:1011700009F4A7C0883C09F4A4C0883B09F48AC0DC
:10118000AAC08091440510C09091660580916505C4
:10119000981770F5E091660581E08E0F80936605E3
:1011A000F0E0EB5BFA4F80818093BB0085EC86C05A
:1011B000809367058EC0E091660581E08E0F809375
:1011C00066058091BB00F0E0EB5BFA4F8083909165
:1011D0006605809165056EC0E091660581E08E0F21
:1011E000809366058091BB00F0E0EB5BFA4F808353
:1011F0008091680581116DC081E08093430584EA88
:1012000061C083E0809369051092CD04CFCF8091B7
:10121000CD04803208F051C0E091CD0481E08E0F02
:101220008093CD048091BB00F0E0E355FB4F8083B9
:10123000BDCF85EC8093BC00109269058091CD04F0
:10124000803230F4E091CD04F0E0E355FB4F1082A2
:101250006091CD0470E0E091AB04F091AC048DEAB4
:1012600094E009951092CD0436C084E0809369051E
:101270001092AA041092A904E091A704F091A80486
:1012800009958091A904811105C081E08093A9048A
:1012900010928704E091AA0481E08E0F8093AA0443
:1012A000F0E0E957FB4F80818093BB009091AA0446
:1012B0008091A904981708F479CF85E88093BC0041
:1012C0000AC085EC8093BC001092690504C010929E
:1012D00067050E943A02FF91EF91BF91AF919F91F4
:1012E0008F917F916F915F914F913F912F910F90CF
:1012F0000FBE0F901F9018950C94781B0C94701BC8
:101300008091160381110FC067E070E084EA96E0D7
:101310000E949A0566E070E087EA96E00E949A05CE
:1013200081E0809316030895809116038823E1F0ED
:10133000E091A406F0E0CF01880F991FE80FF91F94
:10134000E158F94F80818F7B8083E091A706F0E020
:10135000CF01880F991FE80FF91FE158F94F8081DD
:101360008F7B8083109216030895E0918E05F09193
:101370008F050190F081E02D682F8EE895E00994AB
:10138000CF92DF92EF92FF920F931F93CF93DF9351
:101390006C017A018B01C0E0D0E0CE15DF0589F049
:1013A000D8016D918D01D601ED91FC910190F081F4
:1013B000E02DC6010995892B11F47E0102C021960A
:1013C000ECCFC701DF91CF911F910F91FF90EF906C
:1013D000DF90CF900895EEE8F5E0A089B18982E032
:1013E0008C93A485B5851C92A685B7858FEC8C93CC
:1013F000108EA489B58986E08C93A289B3898C91DB
:1014000080618C93A289B3898C9188608C93A28926
:10141000B3898C9180688C930288F389E02D808158
:101420008F7D80830895382F20918D0590918C05B4
:10143000213208F049C0809169058111FCCF42E05A
:1014400040936905309368053FEF3093670510922C
:10145000660520936505ACE6B5E045E455E0FA0184
:101460003E2F341B321718F43D913193F9CF10926F
:10147000440520914405990F922B90934405909137
:101480004305913061F41092430590914405909387
:10149000BB009091BC0093FDF8CF95EC01C095EE98
:1014A0009093BC00909169059230E1F390916705AB
:1014B0009F3F79F080916705803241F08091670508
:1014C000803331F084E005C081E003C082E001C0D8
:1014D00083E010926B0510928D0510926A050895B5
:1014E000CF93DF93EC01809102079091030700975F
:1014F00019F06BE40E94CF04D0930307C093020756
:101500008CE599EEAEE5BCE389839A83AB83BC831B
:1015100085E59AE2AFE0B6E38D839E83AF83B8871B
:1015200088E090E09A87898781E080936A0580E36C
:1015300080938C0510926B0510928D056DE483E706
:1015400096E00E94C8026B857C85660F771F83E753
:1015500096E00E94C80281E00E94130ACE01DF914A
:10156000CF910C94E1040F931F9390E0FC01E2559E
:10157000FF4F6491FC01E656FF4FE491F0E0EE0F5F
:10158000FF1FE057FF4F8591949100E412E42FE094
:1015900030E0462F0E94560C6115710581059105BA
:1015A00049F0DC01CB010196A11DB11DBC01CD01AB
:1015B0009F7003C060E070E0CB011F910F91089510
:1015C0006115710579F0FB0101900020E9F7319771
:1015D000AF01461B570BDC01ED91FC910280F381BA
:1015E000E02D099480E090E008954F925F926F9211
:1015F0007F92EF92FF920F931F93CF93DF93CDB71C
:10160000DEB7A1970FB6F894DEBF0FBECDBF7C0149
:10161000FA01CB0119A2223008F42AE08E010F5DF5
:101620001F4F422E512C612C712CBF01A30192013E
:101630000E94861BF901CA01015011096A3014F495
:10164000605D01C0695CD8016C93232B242B252B92
:1016500061F7B801C7010E94E00AA1960FB6F8949D
:10166000DEBF0FBECDBFDF91CF911F910F91FF90D5
:10167000EF907F906F905F904F900895CF92DF92A0
:10168000EF92FF92CF93DF93AB01BC0177FF1BC0BA
:101690006A017B018DE20E94B509EC0144275527C0
:1016A000BA014C195D096E097F092AE08EE895E0C0
:1016B0000E94F50A8C0F9D1FDF91CF91FF90EF9054
:1016C000DF90CF9008952AE08EE895E0DF91CF91EA
:1016D000FF90EF90DF90CF900C94F50A4F925F92BD
:1016E0006F927F928F929F92AF92BF92CF92DF9232
:1016F000EF92FF926B017C019B01AC010E94421AA8
:10170000882319F065E073E01AC046015701E89498
:10171000B7F82FEF3FEF4FE75FE7C501B4010E9435
:10172000421A811112C02FEF3FEF4FE75FE7C5016B
:10173000B4010E944C1A181644F469E073E08EE874
:1017400095E00E94E00A7C0186C02FEF3FEF4FE753
:101750005FE4C701B6010E943D1A18161CF46DE043
:1017600073E0EDCF2FEF3FEF4FE75FECC701B6011E
:101770000E944C1A87FDF3CF20E030E0A901C70199
:10178000B6010E944C1A87FF09C08DE20E94B5097C
:101790005C01F7FAF094F7F8F09402C0A12CB12C98
:1017A0002AE037ED43EA5BE3C701B6010E94301936
:1017B0002B013C010E940E1A6B017C010E94511A00
:1017C0009B01AC01C301B2010E942F192B013C0106
:1017D0002AE0B701A6018EE895E00E94F50A7C0197
:1017E000EA0CFB1C8EE20E94B509E80EF91E20E00F
:1017F00030E040E251E4C301B2010E94B21A2B0171
:101800003C010E940E1A4B01A12CB12C2AE0B5011B
:10181000A4018EE895E00E94F50AE80EF91EC501C4
:10182000B4010E94511A9B01AC01C301B2010E9494
:101830002F1920E030E040E251E40E94B21A0E94E9
:101840000E1AAB0160E070E02AE08EE895E00E949D
:10185000F50AE80EF91E6CE571E08EE895E00E944D
:10186000E00A8E0D9F1DFF90EF90DF90CF90BF900C
:10187000AF909F908F907F906F905F904F90089562
:101880000F931F93CF93DF93EC010E94E00A8C012A
:101890006CE571E0CE010E94E00A800F911FDF919C
:1018A000CF911F910F9108950C94E00ACF92DF928F
:1018B000EF92FF920F931F93E82FF92F05C001506D
:1018C00011092109310961F1908196239417B9F327
:1018D00005C0015011092109310911F190819623A8
:1018E0009413F7CFC12CD12CE12CF12C0AC08FEF2F
:1018F000C81AD80AE80AF80A0C151D052E053F0576
:1019000079F080818623841791F36C2D7D2D8E2DA7
:101910009F2D1F910F91FF90EF90DF90CF90089532
:1019200060E070E080E090E01F910F91FF90EF90F9
:10193000DF90CF900895CF93DF93CDB7DEB7E697D2
:101940000FB6F894DEBF0FBECDBF789484B5826029
:1019500084BD84B5816084BD85B5826085BD85B553
:10196000816085BD80916E00816080936E001092D1
:10197000810080918100826080938100809181004C
:1019800081608093810080918000816080938000DD
:101990008091B10084608093B1008091B00081603B
:1019A0008093B00080917A00846080937A00809167
:1019B0007A00826080937A0080917A0081608093BF
:1019C0007A0080917A00806880937A001092C1003A
:1019D00010926F06109270061092710610927206A5
:1019E00010922D0610922E0610922F06109230069D
:1019F00060ED77E080E090E00E94E6038EE895E0FD
:101A000090936E0680936D060E94EB090E9420045D
:101A100060932D0670932E0680932F0690933006C8
:101A20006DE471E080916D0690916E060E94540CF9
:101A30006AE070E080E090E00E94E60311E010931D
:101A40004106109213031092120310926B0510922C
:101A50008D0510926905109368051092430561E0A9
:101A600082E10E947A0361E083E10E947A0380911F
:101A7000B9008E7F8093B9008091B9008D7F8093EB
:101A8000B90088E48093B80085E48093BC000E948C
:101A9000EB0940E855E260E070E083EE96E00E94DA
:101AA000C00740E659E060E070E08AEA96E00E94F4
:101AB000C00761E089E00E94AA0360E088E00E941C
:101AC000AA0361E083E00E94AA0360E082E00E9432
:101AD000AA0361E085E00E94AA0360E084E00E941E
:101AE000AA0361E08BE00E94AA0360E08AE00E9402
:101AF000AA0361E08DE00E94AA0360E08CE00E94EE
:101B0000AA0360E08FE00E94AA0361E087E00E94E0
:101B1000AA0361E086E00E94AA0364EF71E080E01E
:101B200090E00E94E60366E070E087EA96E00E949B
:101B30009A0567E070E084EA96E00E949A0586EDD7
:101B400096E00E94700A1092D60689EC96E00E94F8
:101B5000700A1093C9061092440410924304109224
:101B6000420410924104109226041092270410920D
:101B7000280410922904109316031092190310924E
:101B80002A04109340048AE999E9A9E9BFE3809304
:101B9000970390939803A0939903B0939A038CE0D2
:101BA00090E00E947E09182F809318038DE090E04A
:101BB0000E947E0980931703212F30E02901582AC3
:101BC0005092300440922F048EE090E00E947E09F3
:101BD000182F809318038FE090E00E947E09809375
:101BE0001703212F30E03901782A70923204609275
:101BF000310488E090E00E947E09182F809318033A
:101C000089E090E00E947E0980931703212F30E045
:101C10006901D82AD0922C04C0922B048AE090E06B
:101C20000E947E09182F809318038BE090E00E9499
:101C30007E0980931703212F30E07901F82AF09272
:101C40002E04E0922D04A3E22A2E312C0E942004BF
:101C5000672B682B692B41F40E94200462307105C8
:101C60008105910508F40AC10E942004609349048B
:101C700070934A0480934B0490934C040091450464
:101C80001091460420914704309148046017710771
:101C90008207930740F46093450470934604809351
:101CA0004704909348040091450410914604209104
:101CB0004704309148042B013C01401A510A620A42
:101CC000730A930182010A3F11052105310508F4C9
:101CD000D5C0609345047093460480934704909365
:101CE0004804F4EFCF2EDD24D394E12CF12CC092E4
:101CF0003906D0923A06E0923B06F0923C061092EA
:101D00003D0610923E0610923F06109240068091CA
:101D1000310690913206A0913306B091340680933B
:101D2000350690933606A0933706B09338060E9486
:101D300020046093310670933206809333069093AB
:101D400034060E94200460932D0670932E06809323
:101D50002F06909330060E9420046B017C016FE5F2
:101D600071E080916D0690916E060E94540C2AE0FD
:101D700041E050E060E070E080916D0690916E0669
:101D80000E94F50A66E671E080916D0690916E06FC
:101D90000E94540C2AE0B701A60180916D06909133
:101DA0006E060E94F50A68E172E080916D069091DE
:101DB0006E060E94540C8091310690913206A091DB
:101DC0003306B0913406B701A601481B590B6A0BC4
:101DD0007B0B2AE080916D0690916E060E94F50AB9
:101DE00068E172E080916D0690916E060E94540C3D
:101DF000409131065091320660913306709134065D
:101E00008091350690913606A0913706B09138063C
:101E1000481B590B6A0B7B0B2AE080916D06909151
:101E20006E060E94F50A6AE671E080916D06909157
:101E30006E060E94540C0E942004AB01BC012AE0F3
:101E400080916D0690916E060E94F50A6CE671E035
:101E500080916D0690916E060E94400C65E070E0E6
:101E600080E090E00E94E6030E9420046093310627
:101E700070933206809333069093340610923F0499
:101E80008091140390911503835E964021F083EEB8
:101E900096E00E94970783EE96E00E94EB01892B63
:101EA00071F1009108040093070483EE96E00E940C
:101EB00003027C01182F80930804081741F081E089
:101EC00080933F046E2D83EE96E00E9497011630BA
:101ED00058F41230A0F0FF2412E0E11AF108F09259
:101EE0004404E09243040BC01B3008F041C0FF24BF
:101EF00026E0E21AF108F0924204E09241040BEE6F
:101F000013E01E8B0D8B23E833E003EC13E018A3E2
:101F10000F8F4FE653E05A8349830FEA13E01A8F7D
:101F2000098F4BE553E05E834D830BE913E0188F77
:101F30000F8B47E4442E43E0542E07ED13E01AA321
:101F400009A353E3852E53E0952E1A8709870BE9E1
:101F500013E06FEAE62E63E0F62E73ECC72E73E013
:101F6000D72EEBEE6E2EE3E07E2EA12CB12C07C017
:101F700063E771E08EE895E00E94400CC0CFF3016A
:101F800080819181A281B381F90181939193A19381
:101F9000B1939F0161E08BE0EBAB3CAB0E947A0315
:101FA000C1010197F1F760E08BE00E947A038AE0BB
:101FB0000E94B30AD3016D937D938D939D933D0150
:101FC000F60180819181A281B381E981FA818193B7
:101FD0009193A193B193FA83E98361E089E00E9430
:101FE0007A03C1010197F1F760E089E00E947A036A
:101FF00088E00E94B30AD6016D937D938D939D93E3
:102000006D01F70180819181A281B381ED81FE8113
:1020100081939193A193B193FE83ED8361E083E07B
:102020000E947A03C1010197F1F760E083E00E940A
:102030007A0382E00E94B30AD7016D937D938D935A
:102040009D937D01F80180819181A281B381F2018C
:1020500081939193A193B1932F0161E085E00E9458
:102060007A03C1010197F1F760E085E00E947A03ED
:1020700084E00E94B30AD8016D937D938D939D9364
:102080008D01E985FA8580819181A281B381F40176
:1020900081939193A193B1934F0161E08DE00E94F0
:1020A0007A03C1010197F1F760E08DE00E947A03A5
:1020B0008CE00E94B30AA985BA856D937D938D93B8
:1020C0009D93BA87A987BFEFAB1ABB0A2BA93CA97E
:1020D000E5E0AE16B10409F052CF80902104909053
:1020E0002204A0902304B090240480922F039092A5
:1020F0003003A0923103B0923203B0911C04A0913E
:102100001D04F0911E04E0911F04B0932B03A093D3
:102110002C03F0932D03E0932E0350910D04409176
:102120000E0430910F042091100450932703409324
:1021300028033093290320932A03C0901704D090DA
:102140001804E0901904F0901A04C0922303D0926E
:102150002403E0922503F0922603009112041091CB
:102160001304709014046090150400931F031093DF
:1021700020037092210360922203809125048093B2
:102180001E038091200480931D038091110480938D
:102190001C0380911B0480931B0380911604809381
:1021A0001A03B401C501CD82DE82EF82F886680190
:1021B000E72CF62C8B2E9A2EAF2EBE2E59834A83F7
:1021C0003B832C83EBE9F3E00FEA13E01A870987DE
:1021D00023EC33E03A8B298B47ED53E0ABEEB3E0D1
:1021E000BCA3ABA31C8E1B8E4B8C5C8C452889F446
:1021F00019821A821B821C82C12CD12C76011D826D
:102200001E821F821886812C912C540160E070E0A0
:10221000CB01ABA1BCA14D905D906D907D90BCA316
:10222000ABA3640D751D861D971DDA014D905D9061
:102230006D907D90AD01840C951CA61CB71CA989DE
:10224000BA894D905D906D907D90BA8BA98B0D8170
:102250001E812F813885040D151D261D371D0D8308
:102260001E832F833887A985BA854D905D906D9028
:102270007D90BA87A987C40CD51CE61CF71C419039
:1022800051906190719009811A812B813C81040DDC
:10229000151D261D371D09831A832B833C832B8D27
:1022A0003C8D2F5F3F4F3C8F2B8F2330310509F042
:1022B0009BCF23E030E040E050E00E94A81B29873C
:1022C0003A874B875C872093210430932204409304
:1022D000230450932404C501B40123E030E040E01E
:1022E00050E00E94A81B29013A0120931C0430935E
:1022F0001D0440931E0450931F046D817E818F81C5
:10230000988523E030E040E050E00E94A81B49019E
:102310005A012093170430931804409319045093E2
:102320001A04C701B60123E030E040E050E00E940B
:10233000A81B2D873E874F87588B2093120430931C
:102340001304409314045093150469817A818B819E
:102350009C8123E030E040E050E00E94A81B298BE4
:102360003A8B4B8B5C8B20930D0430930E0440937F
:102370000F045093100469857A858B859C850E9493
:10238000531A6D837E838F839887C0909703D09074
:102390009803E0909903F0909A03A70196010E9498
:1023A000B21A6BA37CA38DA39EA301E00983C30192
:1023B000B2010E94531A69877A878B879C87A7018D
:1023C00096010E94B21A6FA378A789A79AA7C501A0
:1023D000B4010E94531A6B8F7C8F8D8F9E8FA70143
:1023E00096010E94B21A6BA77CA78DA79EA711E049
:1023F0001DAB6D857E858F8598890E94531A6D87E8
:102400007E878F87988BA70196010E94B21A6FA7CB
:1024100078AB89AB9AAB1EAB69897A898B899C8929
:102420000E94531A4B015C01A70196010E94B21A47
:10243000698B7A8B8B8B9C8BAD89BE896D917D91DD
:102440008D919D91BE8BAD8B0E94531A2B013C0147
:102450009B01AC016BA17CA18DA19EA10E944C1A95
:1024600087FD0EC0A70196016D817E818F819885C1
:102470000E949C19A30192010E943D1A18160CF4A7
:102480001982E9A1FAA16191719181919191FAA3C7
:10249000E9A30E94531A2B013C019B01AC016FA1DF
:1024A00078A589A59AA50E944C1A87FD0EC0A701A0
:1024B000960169857A858B859C850E949C19A3016C
:1024C00092010E943D1A18160CF400E0AF8DB8A1DD
:1024D0006D917D918D919D91B8A3AF8F0E94531AFC
:1024E0002B013C019B01AC016BA57CA58DA59EA594
:1024F0000E944C1A87FD0EC0A70196016B8D7C8D42
:102500008D8D9E8D0E949C19A30192010E943D1AFF
:1025100018160CF41DAAE98DFA8D619171918191C3
:102520009191FA8FE98F0E94531A2B013C019B0174
:10253000AC016FA578A989A99AA90E944C1A87FDB8
:102540000EC0A70196016D857E858F8598890E94B2
:102550009C19A30192010E943D1A18160CF41EAAA0
:10256000AF89B88D6D917D918D919D91B88FAF8B15
:102570000E94531A2B013C019B01AC0169897A89A5
:102580008B899C890E944C1A87FD0CC0A70196017B
:10259000C501B4010E949C19A30192010E943D1A39
:1025A00018160CF410E0ED89FE89E75FF34009F09E
:1025B00043CF109311044EA8409216045DA8509288
:1025C0001B0400932004698060922504F0900504A8
:1025D000F0920404E7E7F0E08491EDEBF0E0049181
:1025E000E9EAF0E01491112379F081110E9451037E
:1025F000E12FF0E0EE0FFF1FE057FF4FA591B491E0
:10260000EC91E02381E009F480E08170809305047F
:102610008F1559F00E942004609300047093010408
:10262000809302049093030419C00E942004009137
:102630000004109101042091020430910304DC0194
:10264000CB01801B910BA20BB30B4597A105B105E4
:1026500028F08091FF038F11F092FF038091140303
:10266000909115038A5A964021F08AEA96E00E94DA
:1026700097078AEA96E00E94EB01892B31F08AEAFB
:1026800096E00E9403028093060483EE96E00E9487
:10269000970786ED96E00E94E40489EC96E00E949C
:1026A000E40480914304909144048130910559F0F1
:1026B0001CF4892BA1F0A9C28230910511F1039776
:1026C00009F47FC1A2C28091410490914204009715
:1026D00031F097FD0FC003970CF4A1C20BC086ED3B
:1026E00096E00E94E10489EC96E00E94E1040E94D9
:1026F000940995C261E971E08EE895E00E94400C72
:102700008EC29091400480913F04992309F4A4C0A3
:102710008823E9F086ED96E00E94E10489EC96E0DA
:102720000E94E1040E94200460933B0470933C04E7
:1027300080933D0490933E040E9480096CE677E00C
:1027400087EA96E00E9465056CE677E0A3C00E94E8
:10275000200400913B0410913C0420913D043091F1
:102760003E04DC01CB01801B910BA20BB30B89381B
:102770009341A105B10508F452C26CED75E087EAFA
:1027800096E00E9465056CED75E084EA96E00E9493
:10279000650586ED96E00E94E4046B017C01609380
:1027A0003704709338048093390490933A0489EC89
:1027B00096E00E94E40460933304709334048093A1
:1027C0003504909336046C157D058E059F05BCF489
:1027D0001092320410923104A7019601261B370B88
:1027E000480B590BCA01B90124E030E040E050E049
:1027F0000E94A81B3093300420932F0412C06C1940
:102800007D098E099F0924E030E040E050E00E94FD
:10281000A81B30933204209331041092300410929C
:102820002F04609131048EE090E00E947C09609159
:1028300032048FE090E00E947C0960912F048CE0CC
:1028400090E00E947C09609130048DE090E00E944D
:102850007C0910924004A8C0882309F186ED96E017
:102860000E94E10489EC96E00E94E1040E942004A9
:1028700060933B0470933C0480933D0490933E042A
:102880000E94800960EB74E087EA96E00E9465058B
:1028900060EB74E084EA96E00E946505C0C10E9486
:1028A000200400913B0410913C0420913D043091A0
:1028B0003E04DC01CB01801B910BA20BB30B8938CA
:1028C0009341A105B10508F4AAC16CED75E087EA52
:1028D00096E00E9465056CED75E084EA96E00E9442
:1028E000650586ED96E00E94E4046B017C0160932F
:1028F0003704709338048093390490933A0489EC38
:1029000096E00E94E404609333047093340480934F
:102910003504909336046C157D058E059F05BCF437
:1029200010922E0410922D0426013701461A570AE0
:10293000680A790AC301B20124E030E040E050E0C7
:102940000E94A81B30932C0420932B0412C06C19F6
:102950007D098E099F0924E030E040E050E00E94AC
:10296000A81B30932E0420932D0410922C04109257
:102970002B0460912D048AE090E00E947C09609114
:102980002E048BE090E00E947C0960912B0488E08B
:1029900090E00E947C0960912C0489E090E00E9404
:1029A0007C0981E0809340040E94200460933B04F2
:1029B00070933C0480933D0490933E040E949409DC
:1029C0001EC10E94800981E080932A040E94800930
:1029D00080912F04909130048459984F90930C0467
:1029E00080930B0480913104909132048459984F64
:1029F00090930A048093090480911B04882309F4AE
:102A000047C08091170490911804A0911904B091C7
:102A10001A04AC01BD0140545140610971094135AE
:102A2000510561057105A0F181399140A105B105FC
:102A300084F06CEA71E08EE895E00E94400C809191
:102A4000090490910A04885C910990930A04809388
:102A500009048091170490911804A0911904B09171
:102A60001A0480349140A105B1050CF05BC062EB03
:102A700071E08EE895E00E94400C80910B049091EB
:102A80000C04885C910990930C0480930B044AC059
:102A900080911604882309F445C080911204909116
:102AA0001304A0911404B0911504AC01BD014A5F58
:102AB000510961097109413551056105710590F1AF
:102AC0008B349140A105B10584F068EB71E08EE88C
:102AD00095E00E94400C80910B0490910C04885C5E
:102AE000910990930C0480930B04809112049091AF
:102AF0001304A0911404B09115048A3F9105A10517
:102B0000B10584F46EEB71E08EE895E00E94400C14
:102B10008091090490910A04885C910990930A04B9
:102B20008093090460910B0470910C046C3D35E0B6
:102B3000730738F0653348E0740728F064E378E001
:102B400002C06CED75E070930C0460930B0420914F
:102B5000090430910A042C3D55E0350748F079010D
:102B60002533384048F094E3E92E98E0F92E04C06C
:102B70008CEDE82E85E0F82EF0920A04E09209042C
:102B8000109116031123C1F080912A048823A1F02B
:102B900080912F0490913004680F791F87EA96E0A6
:102BA0000E94650560913104709132046E0D7F1DA5
:102BB00084EA96E00E94650580912504882379F1D6
:102BC0008091210490912204A0912304B0912404C7
:102BD000863E9105A105B10514F5112361F06CED58
:102BE00075E087EA96E00E9465056CED75E084EA81
:102BF00096E00E946505109242041092410461E043
:102C000083EE96E00E9497010AC064EC71E08EE8C2
:102C100095E00E94400C10924404109243040E94DC
:102C2000200400912604109127042091280430915B
:102C30002904DC01CB01801B910BA20BB30B893E55
:102C40009340A105B10508F4BFC10E942004609320
:102C500026047093270480932804909329046DED33
:102C600071E08EE895E00E94400C6091250470E0D0
:102C700080E090E00E943E0B6AE172E08EE895E011
:102C80000E94540C609121047091220480912304CD
:102C9000909124040E943E0B64E272E08EE895E07D
:102CA0000E94540C609121047091220480912304AD
:102CB000909124040E94531A2DEC3CEC48E652E417
:102CC0000E949C190E946E0B6091200470E080E0CD
:102CD00090E00E943E0B6FE272E08EE895E00E9469
:102CE000540C60911C0470911D0480911E049091FD
:102CF0001F040E943E0B64E272E08EE895E00E94A1
:102D0000540C60911C0470911D0480911E049091DC
:102D10001F040E94531A2DEC3CEC48E652E40E943A
:102D20009C190E946E0B60911B0470E080E090E0A3
:102D30000E943E0B68E372E08EE895E00E94540C1E
:102D400060911704709118048091190490911A04ED
:102D50000E943E0B64E272E08EE895E00E94540C03
:102D600060911704709118048091190490911A04CD
:102D70000E94531A2DEC3CEC48E652E40E949C1948
:102D80000E946E0B6091160470E080E090E00E945B
:102D90003E0B67E472E08EE895E00E94540C60916F
:102DA00012047091130480911404909115040E94F0
:102DB0003E0B64E272E08EE895E00E94540C609154
:102DC00012047091130480911404909115040E94D0
:102DD000531A2DEC3CEC48E652E40E949C190E94E8
:102DE0006E0B6091110470E080E090E00E943E0B59
:102DF00065E572E08EE895E00E94540C60910D0448
:102E000070910E0480910F04909110040E943E0B6B
:102E100064E272E08EE895E00E94540C60910D042B
:102E200070910E0480910F04909110040E94531A27
:102E30002DEC3CEC48E652E40E949C190E946E0B7B
:102E40006FE572E08EE895E00E94540C60911603E5
:102E500070E080E090E00E943E0B6CE571E08EE84F
:102E600095E00E94E00A61E772E08EE895E00E943A
:102E7000540C40910B0450910C0460E070E02AE087
:102E80008EE895E00E94F50A64E872E08EE895E02D
:102E90000E94540C40912F045091300460E070E087
:102EA0002AE08EE895E00E94F50A60E972E08EE87B
:102EB00095E00E94540C40912B0450912C0460E04A
:102EC00070E02AE08EE895E00E94F50A6CE571E07A
:102ED0008EE895E00E94E00A60EA72E08EE895E0F4
:102EE0000E94540C4091090450910A0460E070E083
:102EF0002AE08EE895E00E94F50A64E872E08EE828
:102F000095E00E94540C409131045091320460E0ED
:102F100070E02AE08EE895E00E94F50A60E972E030
:102F20008EE895E00E94540C40912D0450912E049F
:102F300060E070E02AE08EE895E00E94F50A6CE51A
:102F400071E08EE895E00E94E00A64EB72E08EE8A2
:102F500095E00E94540C4091080450E060E070E05D
:102F60002AE08EE895E00E94F50A6CE571E08EE8B3
:102F700095E00E94E00A68ED72E08EE895E00E941C
:102F8000540C4091070450E060E070E02AE08EE8C5
:102F900095E00E94F50A6CE571E08EE895E00E94EC
:102FA000E00A67EF72E08EE895E00E94540C6091B1
:102FB0003F0470E080E090E00E943E0B6CE571E021
:102FC0008EE895E00E94E00A0E944F010C94260EC4
:102FD000CF93DF93C9E0D1E0D093AB06C093AA06AC
:102FE0008AEA96E00E942402D093E406C093E306A6
:102FF00083EE96E0DF91CF910C942402109291051C
:103000001092900588EE93E0A0E0B0E080939205E6
:1030100090939305A0939405B093950529E131E031
:1030200030938F0520938E0525EC30E030939B057F
:1030300020939A0524EC30E030939D0520939C0565
:1030400020EC30E030939F0520939E0521EC30E08A
:103050003093A1052093A00522EC30E03093A30526
:103060002093A20526EC30E03093A5052093A4051B
:103070001092A7051092A8051092A9051092AA0512
:1030800010923106109232061092330610923406D6
:1030900010923506109236061092370610923806B6
:1030A0001092390610923A0610923B0610923C0696
:1030B00010923D0610923E0610923F061092400676
:1030C0001092760610927506809377069093780694
:1030D000A0937906B0937A0689E291E09093740602
:1030E0008093730620E041E160E183EE96E00E9468
:1030F000B70680910001282F30E03093E20620933C
:10310000E1061092D6061092D7061092D8061092B9
:10311000D9061092DA061092DB061092DC061092A5
:10312000DD061092DE061092E0061092DF0621E026
:10313000280F30E03093D5062093D4068E5F80931D
:1031400000011092C9061092CA061092CB06109286
:10315000CC061092CD061092CE061092CF06109299
:10316000D0061092D1061092D3061092D20620E01B
:1031700048E26EE08AEA96E00E94B7068091A306D4
:103180008C30A0F491E0980F9093A3068093A7064B
:1031900090E0FC01EE0FFF1F8E0F9F1FFC01E15816
:1031A000F94F88EB9BE09283818303C08FEF80937C
:1031B000A7068091A3068C30A0F491E0980F90931D
:1031C000A3068093A40690E0FC01EE0FFF1F8E0F74
:1031D0009F1FFC01E158F94F88EB9BE092838183AC
:1031E00008958FEF8093A4060895991B79E004C099
:1031F000991F961708F0961B881F7A95C9F7809536
:10320000089597FB072E16F4009407D077FD09D098
:103210000E94151907FC05D03EF4909581959F4FAB
:103220000895709561957F4F0895AA1BBB1B51E1CE
:1032300007C0AA1FBB1FA617B70710F0A61BB70B26
:10324000881F991F5A95A9F780959095BC01CD01CB
:103250000895EE0FFF1F0590F491E02D099450584A
:10326000BB27AA270E9447190C94361B0E94281BD3
:1032700038F00E942F1B20F039F49F3F19F426F4F8
:103280000C94251B0EF4E095E7FB0C941F1BE92F13
:103290000E94471B58F3BA17620773078407950704
:1032A00020F079F4A6F50C94691B0EF4E0950B2E32
:1032B000BA2FA02D0B01B90190010C01CA01A00188
:1032C0001124FF27591B99F0593F50F4503E68F1E3
:1032D0001A16F040A22F232F342F4427585FF3CF24
:1032E000469537952795A795F0405395C9F77EF4F5
:1032F0001F16BA0B620B730B840BBAF09150A1F03E
:10330000FF0FBB1F661F771F881FC2F70EC0BA0FC3
:10331000621F731F841F48F4879577956795B7954B
:10332000F7959E3F08F0B0CF9395880F08F0992746
:10333000EE0F9795879508950E94B0190C94361B4F
:103340000E942F1B58F00E94281B40F029F45F3F79
:1033500029F00C941F1B51110C946A1B0C94251B13
:103360000E94471B68F39923B1F3552391F3951BF2
:10337000550BBB27AA2762177307840738F09F5F96
:103380005F4F220F331F441FAA1FA9F335D00E2E03
:103390003AF0E0E832D091505040E695001CCAF770
:1033A0002BD0FE2F29D0660F771F881FBB1F261733
:1033B00037074807AB07B0E809F0BB0B802DBF010A
:1033C000FF2793585F4F3AF09E3F510578F00C94D9
:1033D0001F1B0C946A1B5F3FE4F3983ED4F3869561
:1033E00077956795B795F7959F5FC9F7880F911DFA
:1033F0009695879597F90895E1E0660F771F881FE6
:10340000BB1F621773078407BA0720F0621B730B98
:10341000840BBA0BEE1F88F7E09508950E944F1BAE
:1034200088F09F5798F0B92F9927B751B0F0E1F085
:10343000660F771F881F991F1AF0BA95C9F714C035
:10344000B13091F00E94691BB1E008950C94691BA2
:10345000672F782F8827B85F39F0B93FCCF386956E
:1034600077956795B395D9F73EF4909580957095CB
:1034700061957F4F8F4F9F4F08950E948E1A08F4D9
:103480008FEF08950E948E1A880B990B089581E0A2
:1034900090E0F8940C94C71B0E948E1A08F481E007
:1034A0000895E89409C097FB3EF490958095709537
:1034B00061957F4F8F4F9F4F9923A9F0F92F96E980
:1034C000BB279395F695879577956795B795F111F5
:1034D000F8CFFAF4BB0F11F460FF1BC06F5F7F4F92
:1034E0008F4F9F4F16C0882311F096E911C07723A4
:1034F00021F09EE8872F762F05C0662371F096E8AD
:10350000862F70E060E02AF09A95660F771F881F7B
:10351000DAF7880F9695879597F90895990F00081F
:10352000550FAA0BE0E8FEEF16161706E807F90795
:10353000C0F012161306E407F50798F0621B730B30
:10354000840B950B39F40A2661F0232B242B252BB1
:1035500021F408950A2609F4A140A6958FEF811D54
:10356000811D08950E94C51A0C94361B0E94281BC9
:1035700038F00E942F1B20F0952311F00C941F1B94
:103580000C94251B11240C946A1B0E94471B70F39A
:10359000959FC1F3950F50E0551F629FF001729FF8
:1035A000BB27F00DB11D639FAA27F00DB11DAA1F07
:1035B000649F6627B00DA11D661F829F2227B00D54
:1035C000A11D621F739FB00DA11D621F839FA00DDF
:1035D000611D221F749F3327A00D611D231F849F2F
:1035E000600D211D822F762F6A2F11249F57504086
:1035F0009AF0F1F088234AF0EE0FFF1FBB1F661F01
:10360000771F881F91505040A9F79E3F510580F0C9
:103610000C941F1B0C946A1B5F3FE4F3983ED4F399
:10362000869577956795B795F795E7959F5FC1F76D
:10363000FE2B880F911D9695879597F9089597F918
:103640009F6780E870E060E008959FEF80EC089548
:1036500000240A9416161706180609060895002471
:103660000A9412161306140605060895092E0394EB
:10367000000C11F4882352F0BB0F40F4BF2B11F45F
:1036800060FF04C06F5F7F4F8F4F9F4F089557FDBE
:103690009058440F551F59F05F3F71F04795880FC0
:1036A00097FB991F61F09F3F79F087950895121657
:1036B00013061406551FF2CF4695F1DF08C0161603
:1036C00017061806991FF1CF8695710561050894B4
:1036D0000895E894BB2766277727CB0197F90895CB
:1036E000F999FECF92BD81BDF89A992780B50895CA
:1036F000262FF999FECF1FBA92BD81BD20BD0FB60E
:10370000F894FA9AF99A0FBE01960895A1E21A2E3A
:10371000AA1BBB1BFD010DC0AA1FBB1FEE1FFF1F75
:10372000A217B307E407F50720F0A21BB30BE40BC5
:10373000F50B661F771F881F991F1A9469F760950C
:103740007095809590959B01AC01BD01CF010895C6
:10375000052E97FB1EF400940E94BF1B57FD07D057
:103760000E94861B07FC03D04EF40C94BF1B50959F
:103770004095309521953F4F4F4F5F4F089590955D
:103780008095709561957F4F8F4F9F4F089510E002
:10379000C2E6D0E004C0FE010E9429192196C3367A
:0837A000D107C9F7F894FFCF2F
:1037A8001001000000000000009701C009EB0103B0
:1037B800027E01960100000000E600C009AF008DFE
:1037C80000A1002D0100000000C802980290027CB0
:1037D800026D026C0200000000F702C009F702F750
:1037E80002F702F70200000000F702C009564D4434
:1037F80050565F317C315F564D4450560D0A005685
:103808004D4450455F003A323A007C005F564D44C3
:103818005045004572726F723A20756E6B6E6F7705
:103828006E206D6173746572206D65737361676571
:10383800004572726F722120756E6B6E6F776E2005
:10384800636F75727365496E6465780070696E6739
:10385800310070696E67320070696E673300706995
:103868006E6734004552524F5220756E6B6E6F77FB
:103878006E206D6F646520696E64657800446562CA
:10388800756720756C747261736F6E6963207661F9
:103898006C75657320286669727374206E756D6225
:1038A800657220313D72656C6961626C652C2030EF
:1038B8003D72616E646F6D293A00202046726F6E0A
:1038C800743A2000202020696E20636D3A20002081
:1038D80020526561723A200020204C65667420668B
:1038E800726F6E743A200020204C656674207265F1
:1038F80061723A2000202052696768743A20004DAE
:103908006F746F72732061747461636865643A20C0
:10391800004C656674206D6F746F722073706565F6
:10392800643A20002020204F66667365743A2000B0
:10393800202020526576204F66667365743A200011
:103948005269676874206D6F746F72207370656553
:10395800643A20004C617374206D65737361676508
:103968002072656369657665642066726F6D206D87
:1039780061737465723A20004D65737361676520E1
:103988007265636965766564206265666F72652035
:10399800746861743A20004E6577206D65737361B1
:1039A80067653A20006E616E00696E66006F766624
:0239B80000000D
:00000001FF
